:020000040800F2
:1000000000000524D9230008F9170008FB17000891
:10001000FD170008FF170008011800080000000085
:10002000000000000000000000000000614900081E
:100030000318000800000000014A0008B946000843
:100040002D2400082D2400082D2400082D2400084C
:100050002D2400082D2400082D2400082D2400083C
:100060002D2400082D2400082D2400082D2400082C
:10007000051800082D2400082D2400082D24000850
:100080002D2400082D2400082D2400081518000830
:100090002518000835180008451800082D24000808
:1000A0002D2400082D2400082D2400082D240008EC
:1000B000551800082D2400082D2400082D240008C0
:1000C0002D2400082D2400082D2400082D240008CC
:1000D0002D240008651800082D2400082D24000890
:1000E000751800082D240008000000002D240008C9
:1000F0002D2400082D2400082D2400082D2400089C
:100100002D2400082D2400082D2400082D2400088B
:100110002D2400082D2400082D2400082D2400087B
:100120002D2400082D2400082D2400082D2400086B
:100130002D2400082D2400082D2400082D2400085B
:1001400000000000000000000000000000000000AF
:100150002D2400082D2400082D2400082D2400083B
:100160002D2400082D2400082D2400082D2400082B
:100170002D240008891800082D2400080000000024
:100180002D2400082D2400082D2400082D2400080B
:100190002D2400082D2400082D2400082D240008FB
:1001A0002D2400082D2400082D2400080000000044
:1001B0002D2400082D2400082D2400082D240008DB
:1001C0002D2400082D24000800000000000000007D
:1001D00000000000000000002D24000800000000C6
:1001E000000000000000000000000000000000000F
:1001F00000000000000000002D2400082D2400084D
:100200002D2400082D240008000000002D240008E3
:100210002D2400082D2400082D2400082D2400087A
:100220002D240008000000002D240008000000001C
:100230002D2400082D240008000000002D240008B3
:100240002D2400082D2400082D2400082D2400084A
:100250002D2400082D2400082D2400082D2400083A
:100260002D2400082D2400082D2400082D2400082A
:100270002D2400082D2400082D2400080000000073
:100280002D2400082D2400082D2400082D2400080A
:10029000000000002D2400082D24000800000000AC
:1002A000000000002D2400082D2400082D24000843
:1002B0002D2400082D2400082D240008991800087A
:0C02C000A91800082D2400082D240008B7
:1002D000F0B400EB4003DFF8880000EBC30000F14E
:1002E00018063069F7687568874232D3B368DC1B3B
:1002F000631E934214D37D19D01900BF11F8013B3E
:1003000005F8013B013A05D011F8013B05F8013B26
:10031000013AF3D1BFF35F8FF0600120F0BC70476A
:10032000C018904219D37819121B11F8013B00F83C
:10033000013B013CF9D1141C05D011F8013B05F833
:10034000013B013AF9D1BFF35F8FF4600120F0BCAB
:100350007047C01B01389042CDD20020F0BC7047DE
:10036000CC9B002481F0004102E000BF83F00043F9
:1003700030B54FEA41044FEA430594EA050F08BF40
:1003800090EA020F1FBF54EA000C55EA020C7FEA04
:10039000645C7FEA655C00F0E2804FEA5454D4EB81
:1003A0005555B8BF6D420CDD2C4480EA020281EA4B
:1003B000030382EA000083EA010180EA020281EA83
:1003C0000303362D88BF30BD11F0004F4FEA0131D5
:1003D0004FF4801C4CEA113102D0404261EB4101E4
:1003E00013F0004F4FEA03334CEA133302D052426A
:1003F00063EB430394EA050F00F0A780A4F1010426
:10040000D5F1200E0DDB02FA0EFC22FA05F280185F
:1004100041F1000103FA0EF2801843FA05F3594145
:100420000EE0A5F120050EF1200E012A03FA0EFCC4
:1004300028BF4CF0020C43FA05F3C01851EBE371EE
:1004400001F0004507D54FF0000EDCF1000C7EEB0B
:1004500000006EEB0101B1F5801F1BD3B1F5001F49
:100460000CD349085FEA30004FEA3C0C04F1010468
:100470004FEA445212F5800F80F09A80BCF1004F91
:1004800008BF5FEA500C50F1000041EB045141EA13
:10049000050130BD5FEA4C0C404141EB0101013CDC
:1004A00028BFB1F5801FE9D291F0000F04BF0146CB
:1004B0000020B1FA81F308BF2033A3F10B03B3F19D
:1004C00020020CDA0C3208DD02F1140CC2F10C022D
:1004D00001FA0CF021FA02F10CE002F11402D8BF8B
:1004E000C2F1200C01FA02F120FA0CFCDCBF41EA57
:1004F0000C019040E41AA2BF01EB0451294330BD26
:100500006FEA04041F3C1CDA0C340EDC04F1140402
:10051000C4F1200220FA04F001FA02F340EA0300D9
:1005200021FA04F345EA030130BDC4F10C04C4F11F
:10053000200220FA02F001FA04F340EA03002946FF
:1005400030BD21FA04F0294630BD94F0000F83F449
:10055000801306BF81F480110134013D4EE77FEA2C
:10056000645C18BF7FEA655C29D094EA050F08BF78
:1005700090EA020F05D054EA000C04BF1946104659
:1005800030BD91EA030F1EBF0021002030BD5FEA9D
:10059000545C05D14000494128BF41F0004130BDC5
:1005A00014F580043CBF01F5801130BD01F0004519
:1005B00045F0FE4141F470014FF0000030BD7FEA8C
:1005C000645C1ABF194610467FEA655C1CBF0B4687
:1005D000024650EA013406BF52EA033591EA030F9E
:1005E00041F4002130BD00BF90F0000F04BF002196
:1005F000704730B54FF4806404F132044FF00005C9
:100600004FF0000150E700BF90F0000F04BF002141
:10061000704730B54FF4806404F1320410F00045A7
:1006200048BF40424FF000013EE700BF42004FEAA2
:10063000E2014FEA31014FEA02701FBF12F07F431F
:1006400093F07F4F81F06051704732F07F4208BFD6
:10065000704793F07F4F04BF41F40021704730B5DD
:100660004FF4607401F0004521F000411CE700BF29
:1006700050EA010208BF704730B54FF000050AE0AC
:1006800050EA010208BF704730B511F0004502D5AD
:10069000404261EB41014FF4806404F132045FEAAF
:1006A000915C3FF4D8AE4FF003025FEADC0C18BF58
:1006B00003325FEADC0C18BF033202EBDC02C2F14A
:1006C000200300FA03FC20FA02F001FA03FE40EADC
:1006D0000E0021FA02F11444BDE600BF70B54FF0E0
:1006E000FF0C4CF4E06C1CEA11541DBF1CEA1355BE
:1006F00094EA0C0F95EA0C0F00F0DEF82C4481EA26
:10070000030621EA4C5123EA4C5350EA013518BF45
:1007100052EA033541F4801143F4801338D0A0FB32
:1007200002CE4FF00005E1FB02E506F00042E0FBDF
:1007300003E54FF00006E1FB03569CF0000F18BFE5
:100740004EF0010EA4F1FF04B6F5007F64F540748D
:1007500004D25FEA4E0E6D4146EB060642EAC62120
:1007600041EA55514FEAC52040EA5E504FEACE2E8D
:10077000B4F1FD0C88BFBCF5E06F1ED8BEF1004F90
:1007800008BF5FEA500E50F1000041EB045170BD0C
:1007900006F0004646EA010140EA020081EA030150
:1007A000B4EB5C04C2BFD4EB0C0541EA045170BD4C
:1007B00041F480114FF0000E013C00F3AB8014F1C6
:1007C000360FDEBF002001F0004170BDC4F100040F
:1007D000203C35DA0C341BDC04F11404C4F1200590
:1007E00000FA05F320FA04F001FA05F240EA0200EB
:1007F00001F0004221F0004110EBD37021FA04F621
:1008000042EB06015EEA430E08BF20EAD37070BDDA
:10081000C4F10C04C4F1200500FA04F320FA05F039
:1008200001FA04F240EA020001F0004110EBD3703B
:1008300041F100015EEA430E08BF20EAD37070BDAB
:10084000C4F1200500FA05F24EEA020E20FA04F384
:1008500001FA05F243EA020321FA04F001F0004133
:1008600021FA04F220EA020000EBD3705EEA430EA4
:1008700008BF20EAD37070BD94F0000F0FD101F0D3
:100880000046400041EB010111F4801F08BF013C0C
:10089000F7D041EA060195F0000F18BF704703F04A
:1008A0000046520043EB030313F4801F08BF013DD1
:1008B000F7D043EA0603704794EA0C0F0CEA13558D
:1008C00018BF95EA0C0F0CD050EA410618BF52EA47
:1008D0004306D1D181EA030101F000414FF000004D
:1008E00070BD50EA410606BF1046194652EA43065B
:1008F00019D094EA0C0F02D150EA013613D195EACF
:100900000C0F05D152EA03361CBF104619460AD116
:1009100081EA030101F0004141F0FE4141F4700120
:100920004FF0000070BD41F0FE4141F4780170BD10
:1009300070B54FF0FF0C4CF4E06C1CEA11541DBF75
:100940001CEA135594EA0C0F95EA0C0F00F0A7F877
:10095000A4EB050481EA030E52EA03354FEA0131A4
:1009600000F088804FEA03334FF0805545EA1313B7
:1009700043EA12634FEA022245EA111545EA10657F
:100980004FEA00260EF000419D4208BF964244F116
:10099000FD0404F5407402D25B084FEA3202B61A35
:1009A00065EB03055B084FEA32024FF480104FF409
:1009B000002CB6EB020E75EB030E22BFB61A75467D
:1009C00040EA0C005B084FEA3202B6EB020E75EB10
:1009D000030E22BFB61A754640EA5C005B084FEA78
:1009E0003202B6EB020E75EB030E22BFB61A754645
:1009F00040EA9C005B084FEA3202B6EB020E75EB50
:100A0000030E22BFB61A754640EADC0055EA060E10
:100A100018D04FEA051545EA16754FEA06164FEA53
:100A2000C30343EA52734FEAC2025FEA1C1CC0D1FF
:100A300011F4801F0BD141EA00014FF000004FF08C
:100A4000004CB6E711F4801F04BF01430020B4F14D
:100A5000FD0C88BFBCF5E06F3FF6AFAEB5EB030C05
:100A600004BFB6EB020C5FEA500C50F1000041EB02
:100A7000045170BD0EF0004E4EEA113114EB5C04CF
:100A8000C2BFD4EB0C0541EA045170BD41F48011A2
:100A90004FF0000E013C90E645EA060E8DE60CEAAA
:100AA000135594EA0C0F08BF95EA0C0F3FF43BAFC7
:100AB00094EA0C0F0AD150EA01347FF434AF95EA7E
:100AC0000C0F7FF425AF104619462CE795EA0C0F62
:100AD00006D152EA03353FF4FDAE1046194622E72F
:100AE00050EA410618BF52EA43067FF4C5AE50EA09
:100AF00041047FF40DAF52EA43057FF4EBAE12E7F9
:100B00004FF0FF3C06E000BF4FF0010C02E000BFD9
:100B10004FF0010C4DF804CD4FEA410C7FEA6C5CBC
:100B20004FEA430C18BF7FEA6C5C1BD001B050EA5F
:100B3000410C0CBF52EA430C91EA030F02BF90EA4A
:100B4000020F0020704710F1000F91EA030F58BF09
:100B5000994208BF90422CBFD8176FEAE37040F06B
:100B6000010070474FEA410C7FEA6C5C02D150EA09
:100B7000013C07D14FEA430C7FEA6C5CD6D152EAC4
:100B8000033CD3D05DF8040B704700BF8446104689
:100B900062468C461946634600E000BF01B5FFF788
:100BA000B7FF002848BF10F1000F01BD4DF808ED58
:100BB000FFF7F4FF0CBF012000205DF808FB00BF29
:100BC0004DF808EDFFF7EAFF34BF012000205DF883
:100BD00008FB00BF4DF808EDFFF7E0FF94BF0120D0
:100BE00000205DF808FB00BF4DF808EDFFF7CEFFD1
:100BF00094BF012000205DF808FB00BF4DF808ED10
:100C0000FFF7C4FF34BF012000205DF808FB00BFE0
:100C10004FEA410C7FEA6C5C02D150EA013C0AD1F8
:100C20004FEA430C7FEA6C5C02D152EA033C02D1EA
:100C30004FF0000070474FF0010070474FEA41024B
:100C4000B2F1E04324BFB3F5001CDCF1FE5C0DD92A
:100C500001F0004C4FEAC0024CEA5070B2F1004F74
:100C600040EB830008BF20F00100704711F0804F77
:100C700021D113F13872BCBF01F00040704741F43C
:100C800080114FEA5252C2F11802C2F1200C10FA40
:100C90000CF320FA02F018BF40F001004FEAC12324
:100CA0004FEAD32303FA0CFC40EA0C0023FA02F3C8
:100CB0004FEA4303CCE77FEA625307D150EA01339E
:100CC0001EBF4FF0FE4040F44000704701F000406E
:100CD00040F0FE4040F40000704700BF53B94AB9ED
:100CE000002908BF00281CBF4FF0FF314FF0FF3034
:100CF00000F0E2B8ADF1080C6DE904CE0FF00CFF86
:100D0000DDF804E0DDE9022304B0704700F13401AE
:100D100091E838009C46A6464CF8045D90E8FF0F29
:100D2000E54600BD90EC210B704700BF80EC210B25
:100D3000704700BF90EC200B704700BF80EC200B89
:100D4000704700BFD0EC200B704700BFC0EC200BF9
:100D5000704700BFF0EC0201F0EC0211F0EC022150
:100D6000F0EC0231F0EC0241F0EC0251F0EC0261E7
:100D7000F0EC0271F0EC0281F0EC0291F0EC02A1D7
:100D8000F0EC02B1F0EC02C1F0EC02D1F0EC02E1C7
:100D9000F0EC02F1704700BFE0EC0201E0EC021160
:100DA000E0EC0221E0EC0231E0EC0241E0EC025127
:100DB000E0EC0261E0EC0271E0EC0281E0EC029117
:100DC000E0EC02A1E0EC02B1E0EC02C1E0EC02D107
:100DD000E0EC02E1E0EC02F1704700BFB0FC018101
:100DE000B0FC0191B0FC01A1B0FC01B1704700BFA3
:100DF000A0FC0181A0FC0191A0FC01A1A0FC01B11B
:100E0000704700BFEC4600B52DE900502DE9FF1FEB
:100E10004FF000032DE90C0001A910F057F9DDF89F
:100E200040E012B0704700BFEC4600B52DE900501D
:100E30002DE9FF1F4FF000032DE90C0001A910F070
:100E400083F9DDF840E012B0704700BFEC4600B512
:100E50002DE900502DE9FF1F4FF000032DE90C0094
:100E600001A910F093F9DDF840E012B0704700BF1F
:100E7000EC4600B52DE900502DE9FF1F4FF00003AF
:100E80002DE90C0001AB10F057F9DDF840E012B08D
:100E9000704700BFEC4600B52DE900502DE9FF1F5B
:100EA0004FF000032DE90C0001AA10F0CBF9DDF89A
:100EB00040E012B0704700BF704700BF844641EA6F
:100EC000000313F003036DD1403A41D351F8043BC2
:100ED00040F8043B51F8043B40F8043B51F8043B14
:100EE00040F8043B51F8043B40F8043B51F8043B04
:100EF00040F8043B51F8043B40F8043B51F8043BF4
:100F000040F8043B51F8043B40F8043B51F8043BE3
:100F100040F8043B51F8043B40F8043B51F8043BD3
:100F200040F8043B51F8043B40F8043B51F8043BC3
:100F300040F8043B51F8043B40F8043B51F8043BB3
:100F400040F8043B51F8043B40F8043B403ABDD222
:100F5000303211D351F8043B40F8043B51F8043BC4
:100F600040F8043B51F8043B40F8043B51F8043B83
:100F700040F8043B103AEDD20C3205D351F8043B53
:100F800040F8043B043AF9D2043208D0D2071CBF1F
:100F900011F8013B00F8013B01D30B880380604648
:100FA000704700BF082A13D38B078DD010F00303BE
:100FB0008AD0C3F10403D21ADB071CBF11F8013B2E
:100FC00000F8013B80D331F8023B20F8023B7BE77D
:100FD000043AD9D3013A11F8013B00F8013BF9D2A8
:100FE0000B7803704B7843708B7883706046704742
:100FF00010B5054C237833B9044B13B10448AFF353
:1010000000800123237010BD640200240000000052
:10101000741E010808B5034B1BB103490348AFF325
:10102000008008BD0000000068020024741E010852
:1010300000B583B00B4BD3F8D82042F00102C3F8BF
:10104000D820D3F8D83003F001030193019B00228C
:1010500005210C2006F06EF80C2006F07BF803B09A
:101060005DF804FB0044025810B51748174B0360A5
:1010700000218160C16001230374417483740223E1
:1010800043610F2282612C24C46102624362062301
:1010900083621122C2620363416304238363C363D7
:1010A0000822026443648264C36402654365826506
:1010B000C26502664166836607F016FD00B910BD81
:1010C00000F0FBF9FBE700BFC403002400A00040D0
:1010D00008B51848184B036000218160C160017495
:1010E000417401238374022343610F2383613B22F4
:1010F000C261036205234362062383621722C26230
:10110000036340F25533436304238363C3630822BC
:10111000026443648264C364026543658265C26598
:1011200002664166836607F0DFFC00B908BD00F087
:10113000C4F9FBE72403002400A4004008B51848C4
:10114000184B036000228260C26002744274827491
:10115000022343610F2383612C21C16103620523B4
:101160004362062383621121C162036340F2AA63D2
:10117000436304238363C36308210164436481647C
:10118000C364016543658165C16501664266836626
:1011900007F0AAFC00B908BD00F08FF9FBE700BF1B
:1011A0008402002400D4004010B58CB000230793C3
:1011B000089309930A930B930368604A934207D0FC
:1011C0005F4A934240D05F4A934279D00CB010BD41
:1011D0005D4A136801331360012B27D05B4BD3F8B2
:1011E000E02042F00802C3F8E020D3F8E03003F03A
:1011F00008030293029B0323079302230893092306
:101200000B9307A9524808F027F900220621132062
:1012100005F090FF132005F09DFF00220621152008
:1012200005F088FF152005F095FFCFE7474BD3F871
:10123000EC2042F48072C3F8EC20D3F8EC3003F4D5
:1012400080730193019BC9E73F4A13680133136020
:10125000012B27D03D4BD3F8E02042F00202C3F827
:10126000E020D3F8E03003F002030493049B6023F2
:1012700007930223089309230B9307A9354808F025
:10128000EBF800220521142005F054FF142005F08E
:1012900061FF00220521162005F04CFF162005F005
:1012A00059FF93E7294BD3F8EC2042F48072C3F83E
:1012B000EC20D3F8EC3003F480730393039BC9E76D
:1012C000214A136801331360012B28D01F4BD3F838
:1012D000E02042F00802C3F8E020D3F8E03003F049
:1012E00008030693069B4FF4405307930223089389
:1012F00005240B9407A9164808F0AEF800222146F1
:101300009F2005F017FF9F2005F024FF00222146B3
:10131000A02005F00FFFA02005F01CFF56E70B4BA7
:10132000D3F8EC2042F48072C3F8EC20D3F8EC3010
:1013300003F480730593059BC8E700BF00A000403D
:1013400000A4004000D40040800200240044025861
:10135000000C02580004025808B500F0EFFD02F03E
:1013600063FC012003F03CFAFBE7000008B5044AE7
:101370000021044803F0DAF9034B186008BD00BFF0
:10138000E41F01085913000864040024F0B58DB06F
:1013900007AD00240794089409940A940B943F4BDA
:1013A000D3F8E02042F01002C3F8E020D3F8E020A8
:1013B00002F010020192019AD3F8E02042F00402F8
:1013C000C3F8E020D3F8E02002F004020292029A6F
:1013D000D3F8E02042F08002C3F8E020D3F8E02008
:1013E00002F080020392039AD3F8E02042F0020256
:1013F000C3F8E020D3F8E02002F002020492049A3D
:10140000D3F8E02042F00802C3F8E020D3F8E0204F
:1014100002F008020592059AD3F8E02042F001029A
:10142000C3F8E020D3F8E03003F001030693069BF5
:101430001B4E012244F20901304608F017F94FF41F
:10144000804307930127089709970A942946304655
:1014500008F002F8092307930897099403230A93D5
:101460002946304607F0F8FF4FF4A05307934FF496
:1014700088130893099429460A4807F0EDFF21468E
:101480004FF0006005F0FAFD22460621282005F005
:1014900051FE282005F05EFE0DB0F0BD004402585C
:1014A000000802580010025808B50368B3F1804FD5
:1014B00000D008BD05F0BCFDFBE772B6FEE70000FA
:1014C00000B59DB04C22002109A810F0B1FB2022EC
:1014D000002101A810F0ACFB022008F04DFF002312
:1014E0000093214B9A6922F440429A619B6903F46C
:1014F00040430093009B1C4B9B6913F4005FFAD0A0
:10150000212309934FF480330A9301220F9202237F
:1015100012931393149328211591169217931893ED
:101520000C23199300231A931B9309A808F056FF64
:10153000A8B93F23019303210291002303930823B9
:1015400004934023059306934FF480620792089317
:1015500001A809F031FB20B91DB05DF804FBFFF7CD
:10156000ACFFFFF7AAFF00BF0048025810B5AEB0AD
:10157000B8220021684610F05BFB4FF400420023C4
:10158000CDE9002314230293C82303930223049379
:1015900005930693202308934FF000531B9368464E
:1015A00009F0CCFD08B92EB010BDFFF786FF08B5D5
:1015B00005F010FDFFF784FFFFF7D8FFFFF7E6FE09
:1015C000FFF736FDFFF750FDFFF782FD00F072FADE
:1015D00000F022FB00F054FB00F086FB00F00CF85A
:1015E000FFF7ACFD00F0D4FA03F072F8FFF7BEFE8F
:1015F00003F080F8FEE7000008B51548154B0360BE
:101600004FF480034360002383600722C2604FF0E1
:10161000007202614FF0807242614FF0806282611D
:101620004FF08042C261036243628362C3624263DD
:101630008363C363036443648364C3640365436572
:1016400083650AF0B1FC00B908BDFFF736FFFBE780
:101650006804002400380040F0B5B9B00446002109
:1016600033913491359136913791B82204A810F016
:10167000DFFA2268284B9A4201D039B0F0BD4FF40E
:1016800080520023CDE9042304A809F057FD002867
:101690003ED1224BD3F8E82042F48042C3F8E82040
:1016A000D3F8E82002F480420192019AD3F8E020B6
:1016B00042F00402C3F8E020D3F8E02002F0040274
:1016C0000292029AD3F8E02042F00202C3F8E0202E
:1016D000D3F8E03003F002030393039B0623339314
:1016E000022734970024359436940526379633AD77
:1016F00029460B4807F0B0FE4FF40053339334975C
:101700003594369437962946064807F0A5FEB4E787
:10171000FFF7D3FEBDE700BF003800400044025889
:10172000000802580004025800B583B00A4BD3F8F1
:10173000F42042F00202C3F8F420D3F8F43003F0AE
:1017400002030193019B00220F216FF0010005F0BD
:10175000F1FC03B05DF804FB004402580F2801D9E6
:101760000120704710B58AB00446002201461C20B3
:1017700005F0E0FC1C2005F0EDFC1B4B1C601B4B36
:10178000D3F8E82042F00102C3F8E820D3F8E830AB
:1017900003F001030093009B01A902A809F09CFB40
:1017A000079BC3B909F074FB0346114AA2FB03234C
:1017B0009B0C013B0F484FF08042026040F2E73241
:1017C000C26043600023036183600AF0A1FF30B16F
:1017D00001200AB010BD09F05BFB4300E5E70548B6
:1017E0000AF0F6FDF5E700BF90000024004402581F
:1017F00083DE1B43F0040024FEE7FEE7FEE7FEE77E
:10180000FEE7704708B5024806F0A4FC08BD00BF1B
:10181000D405002408B5024807F08EFC08BD00BFBF
:10182000C403002408B5024807F086FC08BD00BFC9
:101830002403002408B5024807F07EFC08BD00BF61
:10184000C403002408B5024807F076FC08BD00BFB9
:101850002403002408B502480AF00DFE08BD00BFAD
:10186000F004002408B502480BF0D4F908BD00BF0D
:10187000E006002408B54FF4806007F0FDFE4FF449
:10188000805007F0F9FE08BD08B5024808F033FAA9
:1018900008BD00BF0C1D002408B5024807F04CFC31
:1018A00008BD00BF8402002408B5024807F044FCCC
:1018B00008BD00BF840200240120704708B510F065
:1018C00049FA162303604FF0FF3008BD08B54FF00A
:1018D000FF31FFF7F3FFFEE72B4AD2F8883043F4DD
:1018E0007003C2F88830294B1B6803F00F03062BE6
:1018F00006D8264A136823F00F0343F0070313604A
:10190000234B1A6842F001021A6000221A6119681A
:10191000204A0A401A601D4B1B6813F0080F06D0BE
:101920001A4A136823F00F0343F007031360184BA0
:1019300000229A61DA611A62174999621749D962DD
:10194000174919635A639963DA6319645A64196809
:1019500021F4802119601A66D3F8D43013F4805F23
:1019600010D10B4BD3F8D42042F48052C3F8D420CA
:101970000C4A43F2D2011160D3F8D42022F48052F1
:10198000C3F8D420704700BF00ED00E000200052F3
:10199000004402587FEDF6EA000202020000FF0157
:1019A0008002010100400052054AD36843F002035F
:1019B000D360034B5B6813F4005FFAD0704700BF3D
:1019C0000048025882B00368114A934204D0114A79
:1019D00093420FD002B070470F4BD3F8F02042F083
:1019E0000102C3F8F020D3F8F03003F001030093B4
:1019F000009BEFE7084BD3F8E82042F00202C3F85F
:101A0000E820D3F8E83003F002030193019BE1E7FB
:101A100000000140000400400044025800B589B0B5
:101A200000230393049305930693079303681C4ACA
:101A3000934205D01B4A93421BD009B05DF804FBCA
:101A4000194BD3F8E02042F01002C3F8E020D3F89D
:101A5000E03003F010030193019B4FF4085303930C
:101A6000022304930123079303A9104807F0F4FC11
:101A7000E3E70D4BD3F8E02042F00202C3F8E02088
:101A8000D3F8E03003F002030293029B0223039396
:101A90000493079303A9064807F0DEFCCDE700BFD7
:101AA00000000140000400400044025800100258A9
:101AB0000004025810B598B0002415941694179499
:101AC0000E940F941094119412941394149434223D
:101AD000214601A810F0ACF82B482C4B036040F2D3
:101AE000BF33436084604FF6FF73C3600461446199
:101AF00084610AF03DFE002837D100231593169328
:101B0000179315A920480AF04BFF002830D1602315
:101B10000E9300220F92109211921292139214922D
:101B20000EA919480AF09EFE28BB08220EA91648E5
:101B30000AF098FE10BB00230193029303930493D1
:101B400005934FF400520692079309934FF00072E9
:101B50000A920B930D9301A90B480AF079FF80B903
:101B60000948FFF75BFF18B010BDFFF7A6FCC4E7FC
:101B7000FFF7A3FCCBE7FFF7A0FCD6E7FFF79DFC40
:101B8000D9E7FFF79AFCEBE7880500240000014045
:101B900000B58BB00023079308930993009301933A
:101BA000029303930493059306931948194A02601C
:101BB00017224260836042F20F72C2600361802389
:101BC00083610AF0D5FDC8B900230793099307A9DB
:101BD0000F480AF0E5FEA0B96023009300230193AB
:101BE000029304930C22694609480AF03BFE58B957
:101BF0000748FFF713FF0BB05DF804FBFFF75DFC30
:101C0000E2E7FFF75AFCE7E7FFF757FCF0E700BF12
:101C10003C0500240004004008B51748174B03603A
:101C20004FF4E133436000238360C36003610C22FF
:101C300042618361C3610362436283620BF0A5FE6C
:101C400070B900210C480BF073FF60B900210A48FD
:101C50000BF093FF50B908480BF04BFF48B908BD93
:101C6000FFF72BFCEDE7FFF728FCEFE7FFF725FC7C
:101C7000F1E7FFF722FCF2E7740700240078004048
:101C800008B51748174B03604FF4612343600023E6
:101C90008360C36003610C2242618361C36103629C
:101CA000436283620BF071FE70B900210C480BF0A7
:101CB0003FFF60B900210A480BF05FFF50B90848A8
:101CC0000BF017FF48B908BDFFF7F7FBEDE7FFF78B
:101CD000F4FBEFE7FFF7F1FBF1E7FFF7EEFBF2E7CD
:101CE000E00600240010014008B51748174B0360B8
:101CF0004FF4E133436000238360C36003610C222F
:101D000042618361C3610362436283620BF03DFE03
:101D100070B900210C480BF00BFF60B900210A4894
:101D20000BF02BFF50B908480BF0E3FE48B908BD93
:101D3000FFF7C3FBEDE7FFF7C0FBEFE7FFF7BDFBE6
:101D4000F1E7FFF7BAFBF2E74C060024001C014064
:101D5000F0B5BBB0044600213591369137913891EA
:101D60003991B82206A80FF063FF23686B4A9342AB
:101D700008D06B4A934238D06A4A934200F08F8071
:101D80003BB0F0BD02220023CDE9062306A809F0EE
:101D9000D5F938BB644BD3F8E82042F08042C3F851
:101DA000E820D3F8E82002F080420092009AD3F8AD
:101DB000E02042F01002C3F8E020D3F8E03003F056
:101DC00010030193019B4FF4C073359302233693A4
:101DD0000023379338930723399335A9534807F0E5
:101DE0003BFBCDE7FFF769FBD4E701220023CDE9F8
:101DF000062306A809F0A2F900284AD14A4BD3F8D5
:101E0000F02042F01002C3F8F020D3F8F02002F0E6
:101E100010020292029AD3F8E02042F00102C3F8C5
:101E2000E020D3F8E03003F001030393039B4FF469
:101E3000C0633593022336930025379538950723E1
:101E4000399335A93A4807F007FB3A483A4B036003
:101E5000292343608560C5604FF480630361456159
:101E60008561C56105620423436203238362C56201
:101E7000056305F083FB78B92E4BC4F880309C6372
:101E800000220521252005F055F9252005F062F9ED
:101E900076E7FFF712FBB1E7FFF70FFBECE7012254
:101EA0000023CDE9062306A809F048F9002832D11D
:101EB0001D4BD3F8F02042F08002C3F8F020D3F895
:101EC000F02002F080020492049AD3F8E02042F05D
:101ED0001002C3F8E020D3F8E03003F010030593BC
:101EE000059B0423359302273697002437943894B2
:101EF000399335AE0D4D3146284607F0ADFA08232B
:101F000035933697379438940B23399331462846C6
:101F100007F0A2FA34E7FFF7D0FAC9E700780040EB
:101F200000100140001C01400044025800100258FB
:101F300000000258D40500242800024008B5012200
:101F4000104911480CF086FE80B910490E480CF07B
:101F500098FE70B90E490C480CF03BFE60B90A4877
:101F60000CF0AFFE58B908F031FA08BDFFF7A5FA3A
:101F7000EBE7FFF7A2FAEDE7FFF79FFAEFE7FFF7CE
:101F80009CFAF0E75000002408080024D800002440
:101F900008000024002070470020704708B5034B5C
:101FA0001B680BB108889847002008BDE81A002478
:101FB00038B50C46074D014628460CF023FE28464E
:101FC0000CF02CFE044B1B680BB1208898470020B6
:101FD00038BD00BF08080024E41A002410B5064CE0
:101FE0000022064920460CF0FFFD054920460CF072
:101FF00009FE002010BD00BF08080024E40A0024E8
:10200000E412002410B5B0B00446B822002102A8A2
:102010000FF00EFE2268164B9A4201D030B010BD70
:102020004FF480220023CDE902234FF44013239381
:1020300002A809F083F8B8B908F0C8F90D4BD3F835
:10204000D82042F00072C3F8D820D3F8D83003F07B
:1020500000730193019B002205214D2005F06AF8D1
:102060004D2005F077F8D9E7FFF727FAE4E700BF3E
:10207000000004400044025808B500F29C41D0F82A
:10208000E0040CF034FE08BD08B501EBC10300EB21
:102090008303D3F86022D0F8E0040CF0F5FE08BD0D
:1020A00008B501EBC10300EB83031A6AD0F8E00422
:1020B0000CF04AFF08BD08B5D0F8E0040CF092FE21
:1020C00008BD10B50446C17911B1022909D1012119
:1020D000D4F8E0040CF069FED4F8E0040CF033FE10
:1020E00010BDFFF7EAF90121F2E7000010B5044640
:1020F000D0F8E0040CF05CFE2268D2F8003E43F019
:102100000103C2F8003EE37A23B1034A136943F0A6
:102110000603136110BD00BF00ED00E008B5D0F864
:10212000E0040CF053FE08BD08B5D0F8E0040CF054
:102130007FFE08BD08B5D0F8E0040CF063FE08BDD2
:1021400008B5D0F8E0040CF089FE08BD08B5D0F859
:10215000E0040CF085FE08BD0378012B01D00020BF
:10216000704710B5164BC3F8E004C0F8C832154AE2
:102170001A6009221A710221D97100229A715972CA
:102180009A72DA721A739A73DA731A74184607F02D
:10219000EAFA90B90A4C4FF40071204608F0D1F8E1
:1021A00080220021204608F0A6F84FF4BA720121DF
:1021B000204608F0A0F8002010BDFFF77EF9E9E7FF
:1021C0000C1D002400000440D0F8C83211F0800F2C
:1021D00008D101F07F0101EBC10103EB810393F80A
:1021E0005602704701F07F0101EBC10103EB81034F
:1021F000987D704708B5D0F8C80207F0B7FC08BD55
:1022000000487047EC1A00247047032805D8DFE81F
:1022100000F005040205012070470320704708B54F
:10222000D0F8C80207F020FBFFF7EFFF08BD08B5A4
:1022300094461A466346D0F8C80207F0F4FBFFF74D
:10224000E4FF08BD08B5D0F8C80207F032FCFFF77C
:10225000DCFF08BD08B5D0F8C80207F0B5FCFFF7F1
:10226000D4FF08BD08B5D0F8C80207F0F0FCFFF7AE
:10227000CCFF08BD08B5D0F8C80207F0C1FBFFF7D6
:10228000C4FF08BD08B5D0F8C80207F078FCFFF716
:10229000BCFF08BD08B5D0F8C80207F042FCFFF744
:1022A000B4FF08BD12230B80004870473C00002497
:1022B00004230B8000487047380000240023934219
:1022C0001ED200B510E00CF1370C01F813C000016C
:1022D0004FEA430C0CF1010C4FF0000E01F80CE03A
:1022E0000133DBB2934209D24FEA107CB0F1204FA8
:1022F000E9D20CF1300C01F813C0E8E75DF804FBFB
:102300007047000038B50B4BD3F80008D3F80448E9
:10231000D3F80838C01800D138BD074D0822294627
:10232000FFF7CCFF042205F110012046FFF7C6FF9E
:10233000F2E700BF00E0F11F1E00002408B51A23D9
:102340000B80FFF7DFFF014808BD00BF1C00002421
:1023500008B50A4628B9054905480DF00DFA0348A5
:1023600008BD024902480DF007FAF8E7F021002401
:10237000F01E010810B50A46034C214603480DF033
:10238000FBF9204610BD00BFF0210024081F010802
:1023900008B50A4628B9054905480DF0EDF9034886
:1023A00008BD024902480DF0E7F9F8E7F0210024E2
:1023B0001C1F010808B50A4628B9054905480DF053
:1023C000DBF9034808BD024902480DF0D5F9F8E7EA
:1023D000F0210024281F0108DFF838D0FFF7E4FAC5
:1023E000FFF77AFA0C480D490D4A002302E0D45851
:1023F000C4500433C4188C42F9D30A4A0A4C00234F
:1024000001E013600432A242FBD30FF0A9FCFFF7F6
:10241000CEF8704700000524000000246402002468
:10242000F82701086402002404A10024FEE7034603
:1024300000785A7842EA002011B10A701B784B707C
:10244000704730EE600A31EE601AC0EE017A0B1A66
:1024500007EE103AB8EEC77A27EE277A07EE900A11
:10246000F8EEE77A77EE877AFDEEE77A17EE900AD4
:102470007047401A07EE900AB8EEE77A521A07EE54
:10248000902AF8EEE77AC7EE276A70EEC00A60EE8F
:10249000A60A30EE800A7047D0B5F0EE607ADFED24
:1024A000200A30EE670A0DF003FA10EE104A2046BB
:1024B000FEF7BCF806460F4613A3D3E90023FEF748
:1024C0009DFB60B112A3D3E9002330463946FDF7E6
:1024D0004DFFFEF7B3FB044600EE104AD0BD0EA33D
:1024E000D3E9002330463946FEF76AFB0028F3D0D3
:1024F00007A3D3E9002330463946FDF739FFFEF73D
:102500009DFB0446E8E700BF182D4454FB21094019
:10251000182D4454FB211940182D4454FB2109C0A7
:10252000DB0FC94030EE600A03E0DFED0C7A30EEDD
:10253000670ADFED0B7AB4EEE70AF1EE10FAF4DC8D
:1025400003E0DFED067A30EE270ADFED067AB4EE1F
:10255000E70AF1EE10FAF4D4704700BFDB0FC94070
:10256000DB0F4940DB0F49C038B52DED028B10EE73
:10257000100AFEF75BF89FED1E1B41EC100B0DF0EF
:1025800061F951EC100BFEF759FB08EE100AFEF74B
:102590004DF804460D4618A3D3E90023FEF72EFBA1
:1025A00078B113A3D3E9002320462946FDF7DEFEC8
:1025B000FEF744FB08EE100AB0EE480ABDEC028BB1
:1025C00038BD0FA3D3E9002320462946FEF7F8FAC9
:1025D0000028F1D006A3D3E9002320462946FDF7C1
:1025E000C7FEFEF72BFB08EE100AE5E7AFF300800D
:1025F000182D4454FB211940182D4454FB21094047
:10260000182D4454FB2109C0B5EEC00AF1EE10FAB2
:1026100000DD7047B1EE400AFBE780ED0A0AC0ED2D
:102620000B0A80ED0C1AC0ED0D1A80ED0E2AC0EDDC
:102630000F2A80ED003AC0ED013A80ED104AC0ED5E
:10264000114A80ED125A0172C0ED035A704790EDA5
:10265000090A704780ED130A704780ED140A70472D
:10266000D0ED007AF4EEC07AF1EE10FA04D580EDE8
:10267000000A90ED000A7047F4EEE07AF1EE10FAED
:10268000F7DDC0ED000AF4E710B52DED048B04462C
:1026900090ED138A90ED149A38EE498AB0EE480A0C
:1026A000FFF7B2FFD4ED017AF4EEC07AF1EE10FA42
:1026B0002BDD84ED139ADFED7F8AB0EE688A94ED0E
:1026C0000A9A29EE089AD4ED107AF5EE407AF1EEE6
:1026D00010FA06D194ED117AB5EE407AF1EE10FAC7
:1026E00039D0F4EEE87AF1EE10FA37DA29D594ED24
:1026F000117AB4EEE87AF1EE10FA22DD77EE686A2C
:1027000037EE677AC6EE879A2AE0F0EE408AB5EE99
:10271000C08AF1EE10FA07DDF4EEC07AF1EE10FA9D
:1027200002D538EE678ACAE7B5EEC08AF1EE10FA34
:10273000C5D5F4EEE87AF1EE10FAC0D538EE278A66
:10274000BDE7D4ED117AF4EEE87AF1EE10FA07D88D
:10275000DFED589A04E0F7EE009A01E0F7EE009AF8
:10276000D4ED0E7AF5EE407AF1EE10FA64D1D4EDA4
:10277000127AF5EE407AF1EE10FA6AD1D4ED157ABC
:1027800094ED007A27EE297A27EE087A77EE877A99
:10279000C4ED157A94ED0B7A67EE877A237A002BD5
:1027A00072D1D4ED0C6A94ED087A38EE477A66EE71
:1027B000876A94ED006A86EE867AD4ED036AF5EEB8
:1027C000C06AF1EE10FA13DD94ED006A36EE866A07
:1027D000C6EE865AD4ED046A66EEA56AB7EE006AC4
:1027E00036EE656A26EE077A36EE877A84ED047A4D
:1027F000D4ED0D6A94ED136AD4ED065A36EE656A8F
:1028000066EE866A77EE897A77EE877A77EEA67A31
:10281000C4ED097AD4ED0F0AF5EE400AF1EE10FA94
:1028200041D1236D6361E36CA361636AE36184ED6D
:10283000088ABDEC048B10BDF1EE677A94ED0B7A3B
:1028400087EE870AF1EE400A04F15400FFF708FF13
:102850008DE7F4EEE87AF1EE10FA10DDD4ED157A9A
:1028600094ED007A27EE297A27EE087A77EE877AB8
:10287000C4ED157A94ED0B7A67EE877A8EE7DFED7B
:102880000D7AC4ED157A89E7D4ED0C6A94ED147ACB
:1028900094ED056A37EE467A66EEC76A94ED006AF3
:1028A00086EE867A89E7B1EE600A04F12400FFF72C
:1028B000D7FEB6E700000000F0B589B005460C462B
:1028C00017461E462022002168460FF0B1F9E308A2
:1028D000019314F0020F11D04FF0804300930223B4
:1028E000029314F0040F0BD1012303930497059670
:1028F0006946284606F042FA09B0F0BD0023EDE72C
:102900000223F2E710B504460368224A934213D02B
:10291000214A93421FD0214A93422BD0204606F0F1
:1029200072FA00220121204606F0AEFB002210219F
:10293000204606F0A9FB10BD194B1860596300230F
:102940001A461946FFF7B8FF00231A460C21204605
:10295000FFF7B2FFE2E7134B1860596300231A46F2
:102960007021FFF7A9FF00231A467C212046FFF7BC
:10297000A3FFD3E70C4B1860596300231A46E021EC
:10298000FFF79AFF00231A46EC212046FFF794FF39
:10299000C4E700BF00A0004000A4004000D40040F5
:1029A00090240024582400242024002400B58BB057
:1029B00001910021029103910493059106910791E1
:1029C0000891099101A906F037FA0BB05DF804FBF4
:1029D00011F0010F2FD038B50368174A934206D083
:1029E000164A93420FD0164A934218D038BD154C60
:1029F000A4F1280523462A46402106F057FAA36889
:102A000028469847F2E7104CA4F1280523462A46A9
:102A1000402106F04BFAA36828469847E6E70B4C9E
:102A2000A4F1280523462A46402106F03FFAA36870
:102A300028469847DAE7704700A0004000A400400D
:102A400000D40040BC240024842400244C2400240E
:102A500011F0100F2FD038B50368174A934206D0F3
:102A6000164A93420FD0164A934218D038BD154CDF
:102A7000A4F1280523462A46412106F017FAA36847
:102A800028469847F2E7104CA4F1280523462A4629
:102A9000412106F00BFAA36828469847E6E70B4C5D
:102AA000A4F1280523462A46412106F0FFF9A36830
:102AB00028469847DAE7704700A0004000A400408D
:102AC00000D40040BC240024842400244C2400248E
:102AD00010B504460368484A934223D0474A9342BC
:102AE0002FD0474A93423BD0464A934247D0464A6A
:102AF000934253D0454A93425FD0454A93426BD0AC
:102B0000444A93421CD1444BD3F808340BB1434898
:102B100098474149B1F8042401F5017120460BF0B2
:102B200051F80DE03E4BD3F808340BB13D489847BF
:102B30003B49B1F8042401F5017120460BF042F83D
:102B400010BD394BD3F808340BB138489847364993
:102B5000B1F8042401F5017120460BF033F8EFE7DA
:102B6000334BD3F808340BB1324898473049B1F8A9
:102B7000042401F5017120460BF024F8E0E72E4B08
:102B8000D3F808340BB12D4898472B49B1F80424E9
:102B900001F5017120460BF015F8D1E7284BD3F869
:102BA00008340BB1274898472549B1F8042401F5AA
:102BB000017120460BF006F8C2E7234BD3F8083426
:102BC0000BB1224898472049B1F8042401F501715E
:102BD00020460AF0F7FFB3E71D4BD3F808340BB1DA
:102BE0001C4898471A49B1F8042401F501712046A0
:102BF0000AF0E8FFA4E700BF0010014000440040D5
:102C000000480040004C00400050004000140140CB
:102C100000780040007C0040C8240024CC2600241A
:102C20001C41002420430024103D0024143F0024B4
:102C300004390024083B0024F8340024FC36002426
:102C4000EC300024F0320024E02C0024E42E002498
:102C5000D4280024D82A002408B503682C4A9342BB
:102C600015D02C4A93421AD02B4A93421FD02B4A9C
:102C7000934224D02A4A934229D02A4A93422ED002
:102C8000294A934233D0294A934238D008BD284973
:102C9000B1F8042401F501710AF094FFF6E7254923
:102CA000B1F8042401F501710AF08CFFEEE7224926
:102CB000B1F8042401F501710AF084FFE6E71F4929
:102CC000B1F8042401F501710AF07CFFDEE71C492C
:102CD000B1F8042401F501710AF074FFD6E719492F
:102CE000B1F8042401F501710AF06CFFCEE7164932
:102CF000B1F8042401F501710AF064FFC6E7134935
:102D0000B1F8042401F501710AF05CFFBEE700BFD1
:102D1000001001400044004000480040004C0040CA
:102D2000005000400014014000780040007C00404A
:102D30001C410024103D002404390024F8340024F0
:102D4000EC300024E02C0024D4280024C8240024E3
:102D500010B40968094CA14209D0094CA14209D01C
:102D6000A0F84020A0F842305DF8044B70470549B8
:102D7000C163F5E70449C163F2E700BF00A000406A
:102D800000A40040902400245824002470B5054677
:102D9000037A194C2370437A6370C368A370C3F33A
:102DA0000722E270C3F307422271C3F30763637122
:102DB0000026A671E671C06B08232246B5F84210C2
:102DC0000068FFF7F3FD2B692370C3F307226270DD
:102DD000C3F30742A270C3F30763E370BA232371FE
:102DE0006671A671E671E86B08232246B5F84210B9
:102DF0000068FFF7DBFD70BD284500240B78A3F1C8
:102E0000AB02042A5CD8DFE802F003212B394B0027
:102E100003704B7843708B788370CB78C3700B79D9
:102E200003714B7943718B79012B04D0022B05D0B0
:102E30004BB9837104E00123837101E002238371A4
:102E4000CB79C371704701238371F9E703754B7820
:102E500083758B78C375CB7803760B79437670478F
:102E600043754B7880F820308B7880F82130CB7810
:102E700080F822300B7980F82330704780F82830B2
:102E80004B7880F82A308B7880F82B30CB7880F81C
:102E90002C300B7980F82D30D0F82A30036370473E
:102EA00080F829304B7880F834308B7880F83530D2
:102EB000CB7880F836300B7980F83730436B8363FA
:102EC000704760EE027A67EEA27A62EEA00A60EEC8
:102ED000A22A77EEA27A22EE011A21EE022A77EEDA
:102EE000827A37EEA10A704710B4344B984206D06C
:102EF000334B984230D020465DF8044B704701397F
:102F00000A29F8D8DFE801F05506080A0C10141851
:102F10001C2024002B4CEEE72B4CECE72B4CEAE773
:102F2000002AE8D12A4CE6E7002AE4D1294CE2E75E
:102F3000002AE0D1284CDEE7002ADCD1274CDAE772
:102F4000002AD8D1264CD6E7002AD4D1254CD2E786
:102F5000002AD0D1244CCEE701390A29CBD8DFE8AA
:102F600001F02A06080A0C1014181C2024001F4C1B
:102F7000C1E71F4CBFE71F4CBDE7002ABBD11E4C69
:102F8000B9E7002AB7D11D4CB5E7002AB3D11C4CD4
:102F9000B1E7002AAFD11B4CADE7002AABD11A4CE8
:102FA000A9E7002AA7D1194CA5E7002AA3D1184CFC
:102FB000A1E7184C9FE7184C9DE700BFC40300240D
:102FC00024030024122400241424002416240024A2
:102FD000182400241A2400241C2400241E24002465
:102FE000082400240A2400240C240024FA230024AA
:102FF000FC230024FE2300240024002402240024B7
:103000000424002406240024F0230024F2230024B6
:10301000F423002410240024F823002438B50446A7
:10302000084611460268104DAA4214D00F4DAA421C
:1030300015D084F8B41084F818319DF8103084F855
:10304000C03084ED2F0AC4ED310A0022FFF74CFF97
:10305000C4F8B80038BD064AC4F8B020E9E7054A0C
:10306000C4F8B020E5E700BF00A0004000A4004085
:10307000902400245824002470B582B00446D0F86F
:10308000B0500DF1060105F12C00FFF7D0F901A9B0
:1030900005F12E00FFF7CBF90DF1020105F130002B
:1030A000FFF7C5F9BDF80660D4F80831F31A1BB272
:1030B000B4F8D820511049428B4258DAD4F8103174
:1030C0000133C4F81031D4F8103103FB0263C4F8A3
:1030D0000C3107EE903AB8EEE77A07EE902AF8EE58
:1030E000676AC7EE267A77EEA77A9FED257A67EEB4
:1030F000877A94ED2F7AC7EE876AC4ED3D6ABDF9F1
:10310000043007EE903AF8EEE77ADFED1E6A67EEDC
:10311000A67AC7EE872AC4ED3E2AD4ED376ABDF9F8
:10312000023007EE903AF8EEE77A87EEA62A84EDB1
:103130003F2A95F8323007EE903AF8EEE77ADFED65
:10314000126A77EEA67AC4ED407A67EE222AD4EDB1
:10315000351A94ED341AD4ED330A94ED320AFFF7A0
:10316000B0FE84ED410AC4F8086102B070BDB3EB53
:10317000520FA8DDD4F81031013BC4F81031A2E79A
:10318000DB0F49405077D63D3393884308B5D0F8DC
:10319000E4200132C0F8E420FFF76EFF08BD38B527
:1031A000044690F81831032B07D0042B1ED0012BB6
:1031B0001BD00023C0F8243117E000F1580590ED32
:1031C000480AD0ED4A7A30EE270A2846FFF742FA3D
:1031D00094ED3E0A2846FFF740FA2846FFF754FAD6
:1031E0002846FFF734FA84ED490A38BD90ED470AC6
:1031F000FFF730FA94ED3D0A2046FFF72EFA2046FD
:10320000FFF742FA2046FFF722FA84ED480A04F15C
:103210005805D4ED4A7A37EE800A2846FFF71AFAA5
:1032200094ED3E0A2846FFF718FA2846FFF72CFAD5
:103230002846FFF70CFA84ED490AD6E7D0ED3B7A31
:10324000FDEEE77A17EE903A43F30723D0F8B82063
:103250001370D0ED3B7AFDEEE77A17EE903AD0F896
:10326000B8205370704710B582B00446FFF797FF3F
:10327000D4ED497A94ED4B7A77EE877ACDED017AE9
:10328000D4ED310AB1EE600A01A8FFF7E9F9D4EDF7
:10329000377A9DED017A67EE877AC4ED3B7AD4EDFB
:1032A0003E2AD4ED2F7AC2EEA72A94ED492AD4ED16
:1032B000351A94ED341AD4ED330A94ED320AFFF73F
:1032C00000FE84ED450A2046FFF7B8FF94F8C030B1
:1032D00023B90023C4F82C31C4F8283102B010BD42
:1032E00010B49DF804C00968194CA1420DD0194CC6
:1032F000A1420DD0184CA1420DD08280BCF1030F29
:103300000DD8DFE80CF00B191D2114490160F4E71A
:1033100013490160F1E713490160EEE7C38080F8CB
:1033200054C080ED020AC0ED030A80ED041AC0ED1E
:10333000051A5DF8044B704703F58073C380EEE710
:1033400003F50073C380EAE703F54073C380E6E743
:1033500000A0004000A4004000D4004090240024BD
:10336000582400242024002410B504680823034AAC
:10337000C1882068FFF71AFB10BD00BF8000002441
:1033800010B504680823034AC1882068FFF70EFBC4
:1033900010BD00BF7800002410B504680823034A5C
:1033A000C1882068FFF702FB10BD00BF7000002439
:1033B00070B52DED028B82B0056895F82C2002F0D7
:1033C0000F02C38803F00F039A4203D002B0BDEC92
:1033D000028B70BD04460DF1060105F12D00FFF7CB
:1033E00026F895F82F0095F83030000140EA1310C8
:1033F0001E0206F4706695F831301E4395F82C30A5
:10340000C3F3031384F82C30BDF80620636CD31A81
:1034100013F5004F5BDAE36C0133E364E36C02EB1A
:1034200003412E4B0B44A36407EE902AF8EEE77A93
:10343000DFED2B6A87EEA67AD4ED027A37EEA76A23
:1034400027EE067A37EE677A84ED147A07EE103AA3
:10345000B8EEC77A87EE266A67EE867A77EEA77AA5
:10346000C4ED0C7A9FED1F8AD4ED030AB0EE480A32
:1034700040F6FF7240F2FF71FEF7FBFF84ED0D0A8C
:10348000D4ED040AB0EE480A40F6FF7240F2FF7134
:103490003046FEF7EEFF84ED0E0A95F8323007EE67
:1034A000903AF8EEE77A9FED107A77EE877AC4EDDE
:1034B0000F7A95F8333007EE903AF8EEE77A77EE28
:1034C000877AC4ED107ABDF8063063647EE7B3F501
:1034D000004FA3DDE36C013BE3649FE70180FFFF46
:1034E00000FF7F47000000003393884308B58269DE
:1034F00001328261FFF75CFF08BD00002DE9F04F4B
:103500002DED028B85B0044690F85430032B72D811
:10351000DFE803F00276838E9FED588A4FF6FF7145
:1035200047F6FF7094ED021AF0EE480A94ED160A81
:10353000FEF787FFADF80E0040F6FF7140F2FF7016
:1035400094ED031AF0EE480A94ED170AFEF779FF9E
:1035500006461FFA80F940F6FF7140F2FF7094EDC5
:10356000041AF0EE480A94ED180AFEF76AFF01907B
:10357000BDF804A040F6FF7100209FED411AF0EE67
:10358000480A94ED1A0AFEF75CFF07461FFA80FB13
:1035900040F6FF710020B1EE041AF0EE480A94EDF7
:1035A0001B0AFEF74EFF05461FFA80F800210DF1B9
:1035B0000E00FEF73CFF20844FEA191984F8229090
:1035C000360146EA1B2684F8236084F824704FEA0B
:1035D000181884F825802D0145EA1A2584F826500C
:1035E000019B84F82730224652F8200B0823E188FB
:1035F0000068FFF7DBF905B0BDEC028BBDE8F08F8A
:10360000836D0362C36D4362024652F8200B0823A8
:10361000E1880068FFF7CAF9EDE7C36D036202466F
:1036200052F8200B0423E1880068FFF7BFF9E2E7B6
:10363000836D0362D0ED177A9FED127A67EE877A79
:10364000FCEEE77A17EE903A8384D0ED196A90ED9C
:10365000057AC6EE877A9FED0C7A67EE877AFCEEE4
:10366000E77A17EE903AC384024652F8200B0823FB
:10367000E1880068FFF79AF9BDE700BF000000008D
:103680000000FA430000C84200401C4610B509681B
:10369000104CA14214D0104CA14214D00F4CA142A6
:1036A00014D08280C38037230377322380F82130FF
:1036B000012303760A4A01460A4801F037F810BD93
:1036C00009490160EDE709490160EAE7084901603D
:1036D000E7E700BF00A0004000A4004000D4004085
:1036E000182001087737000890240024582400246B
:1036F00020240024036893F82C20027293F82D20D4
:10370000427293F82E20827293F82F20C27293F89F
:1037100030300373704708B5026901320261FFF768
:10372000E9FF08BD10B582B0037E8DF80030837EBE
:103730008DF80130037F8DF80230437F8DF8033020
:1037400000238DF804308DF805308DF806308DF8A3
:103750000730046808236A46C1882068FFF726F905
:1037600002B010BD10B504462046FFF7DBFF0A206B
:1037700001F036F8F8E708B5FFF7F4FF0E4B1B78B9
:10378000C3B982B00C4B01221A700C4B5B680193D9
:10379000019A0B4B1B689A4203D20A4A1368013301
:1037A0001360064B5A68064B1A60034B00221A70CE
:1037B00002B07047704700BF30450024001000E0A1
:1037C000344500243845002408B5124AD2F8FC30AC
:1037D00043F08073C2F8FC300F4B002159601A6827
:1037E00042F001021A600D4B03FB00F00C4B186015
:1037F0000C4BA3FB00239B090B4A13600B4BA3FB51
:103800000030800C0A4B18600A4B1960FFF7B6FFB6
:1038100008BD00BF00ED00E0001000E040420F00D6
:1038200044450024D34D62104045002483DE1B43F1
:103830003C4500243845002408B5002300E001334E
:10384000074A12789A420AD9064A52F82320D188A8
:103850008142F4D191680029F1D01046884708BD13
:10386000704500244845002408B5002301E00133D9
:10387000DBB20C4A12789A4213D90B4A52F8232031
:1038800011688142F3D190F81CE051684FEA910C25
:10389000012101FA0CF18E45E9D153690BB11046B3
:1038A000984708BDB44500247445002408B5036852
:1038B000A3F20123032B08D8DFE803F002080E145B
:1038C00000F128010A48FFF761FC08BD00F128015A
:1038D0000848FFF75BFCF8E700F128010648FFF70E
:1038E00055FCF2E700F128010448FFF74FFCECE734
:1038F0006046002494470024C8480024FC49002462
:1039000008B50368012B00D008BD00F1280102486A
:10391000FFF774FAF8E700BFBC45002408B5036858
:10392000122B0AD0B3F5807F0DD0112B0AD100F1F4
:1039300028010848FFF7DAFD04E000F128010648F5
:10394000FFF7D4FD08BD00F128010448FFF7E3FEAE
:10395000F8E700BFD44B0024644B0024304E002411
:1039600003460F4A92E8030083E80300AB221A7271
:1039700000225A619A61DA611A625A62AC211975A1
:10398000AD2159759A62DA621A635A639A63AE225C
:1039900083F82820AF2283F829201846704700BFFB
:1039A000901E0108002242618261C261026242628D
:1039B0008262C262026342638263C26302644264DF
:1039C0008264C264026542657047000010B5044617
:1039D000FFF7E8FF04F15800FFF7E4FF194BC4F8C4
:1039E000C830194BC4F8CC30184BC4F8D030184B41
:1039F000C4F8D4304FF40053A4F8D830154BC4F8B1
:103A0000DC30154BC4F8E0300022C4F8E420C4F8E0
:103A1000E8200023C4F8EC3084F8F020042284F875
:103A20001821C4F81C31C4F82031C4F82431C4F87A
:103A30002831C4F82C314FF07E53C4F83031204681
:103A400010BD00BF75A58C3C94273538D9EC023EDB
:103A5000D6A0CC3FCDCC4C440000A04110B50446CC
:103A6000FFF7B4FF04F59A70FFF7B0FF04F51A7082
:103A7000FFF7ACFF04F56770FFF7A8FF04F59A6243
:103A80000023136004F2D442136004F59B621360B8
:103A900004F2DC42136004F59C62136004F2E44219
:103AA0001360204610BD000070B5044600268661F4
:103AB000C66180F8286080F8546000258565C5657A
:103AC000056645668566C566C0F88860C0F88C6086
:103AD00080F8986080F8C460C0F8C850C0F8CC5036
:103AE000C0F8D050C0F8D450C0F8D850C0F8DC505E
:103AF000022380F8F030F430FFF754FF04F5A6708D
:103B0000FFF750FF04F5D270FFF74CFF04F5FE708D
:103B1000FFF748FF1C4BC4F86C324FF07C53C4F8DD
:103B20007032C4F87452C4F87852C4F87C52C4F8A5
:103B30008052C4F88452C4F88852C4F88C5284F875
:103B40009062032384F8913284F89232C4F894523C
:103B5000C4F89852C4F89C52C4F8A052C4F8A452B5
:103B6000C4F8A852C4F8AC52C4F8B052C4F8B45265
:103B7000C4F8B852C4F8BC52C4F8C052C4F8C45215
:103B8000C4F8C852204670BD9A9999BE00220260BE
:103B90004FF4807181800321C180826002730261D1
:103BA00042610276427601218176C27602774277BF
:103BB0008277C27780F82020962280F821207047F3
:103BC00070B504460430FFF7CBFE04F15000FFF758
:103BD000E9FE04F1A800FFF741FF04F5B2630026F7
:103BE0001E60012584F8A85504F2AC50FFF75CFF75
:103BF00004F67800FFF7CAFF04F50A631E6004F6B6
:103C0000A4031E60002384F8A83884F8A958C4F8D7
:103C1000AC58204670BD000008B50248FFF7D0FF41
:103C200008BD00BFB845002408B508490848FEF79C
:103C300069FE08490848FEF765FE08490848FEF78E
:103C400061FE084800F014F808BD00BFAD38000858
:103C5000C403002401390008240300241D3900088E
:103C600084020024B845002408B5FFF7D5FF08BD3D
:103C700010B52DED028B04464FF4F070FFF7A4FD54
:103C8000002301222349201DFFF762F842F2107041
:103C900000F0A6FD9FED208AF0EE485A0021B0EE1C
:103CA000485AF0EE484AB0EE484AF0EE483A9FEDE6
:103CB0001B3AF1EE082AB0EE482AF1EE041AB0EEF3
:103CC000481AF0EE480AB3EE010A04F15000FEF77C
:103CD000A4FC04F2AC5000F0D1FA04F1A80000F00A
:103CE0005FF903234FF480720D4904F67800FFF763
:103CF000CDFC04F50A6383ED008A04F6A40383ED8A
:103D0000008A084A2146084800F010FDBDEC028BED
:103D100010BD00BF24030024000000006F12833A8E
:103D2000840200243C200108993F000830B52DEDA5
:103D3000028B85B004467F238DF809308DF80A3058
:103D40008DF80B308DF80C308DF80D3001228DF888
:103D50000E2000258DF80F508DF801308DF80230BF
:103D60008DF803308DF804308DF805308DF806207D
:103D70008DF8075047E0DFED7E6AF4EEE67AF1EE6B
:103D800010FA7FD804F6A403C3ED006A7AE004F5C4
:103D9000B163784A1A60022384F83D3804F2AC53C8
:103DA000754AC3F8AC22DFED757A28EE278A83EDD9
:103DB000A78A636AA362D4F81A302362002363736C
:103DC00004F2AC53D3EDAF7AF1EE677AC4ED047A26
:103DD00000236361201DFEF7D9FF9DF80F30002BF3
:103DE00040F0BC80012384F89238642384F894382E
:103DF000322384F8953804AA12E90300CDE90001C2
:103E0000012000F0EDFC72B6231D93E8030004AB23
:103E100003E9030062B62DB904AA12E90300CDE953
:103E20000001012504F50A6393ED007A9DF809204D
:103E300008EE102AB8EEC88ADFED516A38EE668ABD
:103E4000DFED507A68EE277A37EE277A83ED007A35
:103E50009DF80A3007EE903AF8EEE77A77EEE67AC8
:103E6000DFED496A67EEA67A04F6A403C3ED007A93
:103E7000DFED466AF4EEE67AF1EE10FAFFF67BAF7C
:103E8000C3ED006A04F2AC5383EDB17A04F6A402E8
:103E90001268C3F8C8229DF80B2007EE102AB8EE6E
:103EA000C77ADFED377A37EE677AB2EE0E6A27EE21
:103EB000067ADFED376A27EE267A04F5AF6282EDE7
:103EC000007A9DF80C2007EE102AB8EEC77A37EE7C
:103ED000C77A27EE067A27EE267A04F27C5282ED24
:103EE000007A9DF80D2007EE102AB8EEC77A77EE1B
:103EF000C77A67EE867A67EEA67A04F5B162C2EDFC
:103F0000007A93ED9E0ADFED237A80EE270AFEF712
:103F10002BFBB1EE400A04F28C5383ED000A9DF8AE
:103F20000E30012B05D0022B0FD0002B7FF441AFB8
:103F30002DE704F5B16300221A60032384F83D38AD
:103F400004F2AC53C3F8AC2233E704F1A80000F04C
:103F5000F5F804F2AC5000F0ABFA2AE7012B03D0DD
:103F6000012384F8923840E7002384F892383CE734
:103F70009A9999BE0000F0419A993141CDCC4C3DBF
:103F80000000FE4217B7D1389A99193B9A99993E89
:103F90000000003CCDCC4C3F08B5FFF7C7FE000049
:103FA00070B52DED028B82B004469FED5E8ADFED89
:103FB0005E8AF0EE485A0021B0EE485AF0EE484AC8
:103FC000B0EE484AF0EE483AB0EE683AF0EE482AD1
:103FD000B0EE482AF0EE481AB0EE481AF0EE480A61
:103FE000B7EE000A5830FEF718FBF0EE485A0021F1
:103FF000B0EE485AF0EE484AB0EE484AF0EE483A81
:10400000B0EE683AF0EE482AB0EE482AF0EE481AD0
:10401000B0EE481AF0EE480AB7EE000A04F5C67092
:10402000FEF7FBFAF0EE485A0021B0EE485AF0EEE7
:10403000484AB0EE484AF0EE483AB0EE683AF0EE40
:10404000482AB0EE482AF0EE481AB0EE481AF0EED0
:10405000480AB7EE000A04F53070FEF7DEFAF0EE1B
:10406000485A0021B0EE485AF0EE484AB0EE484AAD
:10407000F0EE483AB0EE683AF0EE482AB0EE482A40
:10408000F0EE481AB0EE481AF0EE480AB7EE000A11
:1040900004F57D70FEF7C1FADFED248A244D002679
:1040A0000096F3EE040AB0EE680A032301222946C3
:1040B0002046FEF7B3FF0096F3EE040AB0EE680A5E
:1040C00003230222294604F59A70FEF7A7FF009603
:1040D000F3EE040AB0EE680A03231A46294604F5F3
:1040E0001A70FEF79BFF0096F3EE040AB0EE680A22
:1040F00003230422294604F56770FEF78FFF84ED41
:10410000488A84ED958A84EDE28A04F2BC4383ED0B
:10411000008A084A2146084800F008FB02B0BDECBE
:10412000028B70BD000000006F12833A3C3C7C4162
:10413000C403002460200108774200080023C0F86F
:104140002031C0F85432C0F8883300F2BC4003601C
:10415000704710B52DED048B044600F2E443D3ED17
:10416000009AB0EE690A0BF0C7FBF0EE408A04F546
:104170009A6393ED008A20EE089AB0EE690A0BF07C
:10418000FBFB04F2D443D3ED007A20EE277A39EE1C
:10419000479A04F59B6383ED009A28EE008A68EE47
:1041A000A78A38EE288A04F2DC4484ED008ABDEC4C
:1041B000048B10BD00F59B6393ED007ADFED167A5A
:1041C00027EE277A00F2DC43D3ED007ADFED136AA5
:1041D00067EEA67A77EE276A00F59C6393ED006A96
:1041E00076EE866AC0ED486A77EE676A76EE266AF2
:1041F000C0ED956AF1EE476A76EEE76A76EE266ADA
:10420000C0EDE26A77EEC77A77EE867A00F2BC40BC
:10421000C0ED007A704700BFF70435BFF704353FA3
:1042200010B50446FFF71FF804F59A70FFF71BF866
:1042300004F51A70FFF717F804F56770FFF713F825
:104240000823034A4FF400710248FEF7AFFB10BD8C
:1042500010240024C403002410B504462046FFF7B0
:1042600078FF2046FFF7A6FF2046FFF7D9FF012081
:1042700000F0B6FAF2E708B5FFF7EEFFF0B52DED66
:10428000088B83B00446DFED768A9FED768A764F01
:1042900000250095F0EE681AB2EE041AF0EE480A16
:1042A0009FED720A012312223946FFF719F804F133
:1042B00070060095F0EE681AB2EE041AF0EE480AA5
:1042C000B2EE090A0223112239463046FFF708F8F8
:1042D0009FED679A9FED678ADFED678ADFED679A4A
:1042E000F0EE495A2946B0EE485AF0EE484AB0EE90
:1042F000484AF0EE483AB0EE683AF0EE692AB0EE7D
:10430000482AF0EE481AB2EE0E1AF1EE040A9FEDBA
:104310005C0A04F1F400FEF780F9DFED5A5A2946F1
:10432000B0EE485AF0EE484AB0EE484AF0EE483A4D
:10433000B0EE683AF0EE692AB0EE482AF0EE481A7C
:10434000B3EE041AF0EE410A9FED4F0A04F5A67091
:10435000FEF763F99FED4DBADFED4DAA9FED4DAA33
:10436000DFED4D9AF0EE495A2946B0EE485AF0EE8C
:10437000484AB0EE484AF0EE483AB0EE683AF0EEFD
:104380004B2AB0EE082AF0EE6A1A9FED441AF0EEBE
:104390004A0AB0EE690A04F5D270FEF73EF9F0EE73
:1043A000495A2946B0EE485AF0EE484AB0EE484A1B
:1043B000F0EE483AB0EE683AF0EE4B2AB0EE082A3A
:1043C000F0EE6A1A9FED361AF0EE4A0AB0EE690A6C
:1043D00004F5FE70FEF721F9324AC4F8542284ED48
:1043E000968A012384F85C32C4F8602284ED998AAD
:1043F00084F868322046FEF7B7FF3046FEF7B4FF78
:10440000642000F0EDF92046FEF7BAFF3046FEF7D3
:10441000B7FF4FF47A7000F0E3F984ED1A8A84ED67
:10442000368A84ED1B8A84ED378A84ED168A84ED02
:10443000328A84ED178A84ED338A84ED188A84EDFC
:10444000348A2046FFF75AF83046FFF757F8164AE5
:104450002146164800F06AF903B0BDEC088BF0BDA8
:10446000DA2D24410000344284020024D00F494058
:104470000AD7233C000000006F12833A000030424C
:104480000000C8420AD7A33C0000AF4366661E4145
:10449000CDCCCC3D6F12033C8FC2753DCDAFE6381D
:1044A0000F7EE2380865B03D84200108B34600085D
:1044B00010B50446FEF770FF04F17000FEF76CFFC4
:1044C00010BD000038B52DED028B0446D0F8A030A9
:1044D000C0F87C3290ED0C0A80ED9E0A5A4B1B7896
:1044E000002B40F09980584B01221A7080EDAE0AE3
:1044F0000023C0F8B432236DC4F8BC32D4F8C03005
:10450000C4F8C032D4F8A430C4F88432636BC4F861
:104510008032D4F8A830C4F88C32A36BC4F8883247
:1045200004F1F4059FED490A2846FEF793F894ED4F
:10453000B18A94ED9E0ADFED467A80EE270AFEF7F7
:1045400013F8F0EE400AB0EE480AFDF7EBFF2846FC
:10455000FEF783F82846FEF797F894F89132032B7C
:1045600061D0022B67D004F5D27594EDA70A2846D6
:10457000FEF770F894EDA00A94F85C327BB194EDEC
:10458000957A27EE000AF7EE007A77EEC77A94ED77
:10459000967A67EE877A30EE270A84ED960A2846E7
:1045A000FEF75BF82846FEF76FF804F5A67594ED64
:1045B000B20A2846FEF74EF894EDB00A2846FEF7F8
:1045C0004CF82846FEF760F82846FEF740F884EDE0
:1045D000A80A04F5FE752846FEF73CF894EDA10AFA
:1045E00094F868327BB1D4ED987A27EE800AB7EE62
:1045F000007A37EE677AD4ED997A67EE877A30EEF3
:10460000270A84ED990A2846FEF727F82846FEF780
:104610003BF8BDEC028B38BDD0EDAE0AFDF73CFF98
:1046200084EDAD0A67E72846FEF711F8B1EE400ABF
:1046300084EDA70A97E7D4EDA77A94EDAB7A77EEED
:10464000877AC4EDA77A8EE7684E00240000000048
:10465000CDCC4C3F10B5044600F5D270FDF7F7FF06
:1046600084ED180A04F5FE70FDF7F1FF84ED340ABD
:104670002046FEF743FF04F17000FEF73FFF10BD38
:1046800038B50446002511E0D4F89832C4F87432E5
:1046900001252046FFF716FF2046FFF7DBFF01202C
:1046A00000F09EF8D4F89832C4F87432002DEBD0A4
:1046B000EFE708B5FFF7E4FF08B54FF0E0231B690B
:1046C00001F080FC012800D108BD00F0CBF9FBE728
:1046D000EFF305832BB9064B186828B901221A603D
:1046E00070476FF0050070474FF0FF30704700BF14
:1046F00024550024EFF3058373B90A4B1B68012B83
:104700000DD110B50024084BDC77064B02221A604D
:1047100001F082F9204610BD6FF0050070474FF0A0
:10472000FF3070472455002400ED00E0F0B587B05D
:1047300000240594EFF3058404BBF8B1002A34D0BB
:10474000156893692BB11E46013B372B02D9002017
:1047500015E01826536813F0010F3FD1546984B156
:104760004FEA940C93682BB1D7685B2F02D9176975
:1047700007B184B943B14FF0FF330BB3059807B0CD
:10478000F0BD4FF0800CEDE7D368A3B91369ABB16E
:104790004FF0FF33F1E70293019700960B46624614
:1047A000294601F0CBF80590E8E7154600231826C6
:1047B0004FF0800CE1E74FF0FF33DEE70023DCE74A
:1047C00005AB019300960B461FFA8CF2294601F0C7
:1047D000F0F80128D2D000230593CFE70020CEE7E0
:1047E00008B5EFF3058333B908B9002008BD01F01F
:1047F0008DFA0020FAE76FF00500F7E7034B03603E
:10480000034B0B6080231360704700BFC854002423
:10481000C8520024034B0360034B0B604FF48073BA
:10482000136070476C5200246C4E002400F10803A2
:1048300043604FF0FF328260C36003610023036076
:10484000704700230361704743684B609A688A6031
:10485000516099600861036801330360704730B4A8
:104860000D68B5F1FF3F11D000F108031C465B68ED
:104870001A68AA42FAD963684B6099608C606160DB
:10488000086103680133036030BC70470469F2E7D4
:104890000369416882688A60416851605A6882424F
:1048A00006D0002202611A68013A1A60186870473F
:1048B00082685A60F5E7000082B0002301930D4B37
:1048C0001B68B3F1FF3F08D04FF0500383F311880A
:1048D000BFF36F8FBFF34F8FFEE74FF0500383F3AB
:1048E0001188BFF36F8FBFF34F8F019B002BFCD05C
:1048F00002B070478800002408480068006880F310
:1049000008884FF0000080F3148862B661B6BFF3E8
:104910004F8FBFF36F8F00DF00BF000008ED00E096
:10492000DFF80C00016841F470010160704700007D
:1049300088ED00E04FF0807340F8043C21F0010165
:1049400040F8081C054B40F80C3C40F8202C6FF058
:10495000020340F8243C4438704700BFB9480008BF
:10496000074B19680868B0E8F04F80F30988BFF377
:104970006F8F4FF0000080F311887047AFF3008015
:104980008C9600244FF0500383F31188BFF36F8F90
:10499000BFF34F8F0B4A136801331360012B00D014
:1049A00070474FF0E023D3F8043D13F0FF0FF7D02A
:1049B0004FF0500383F31188BFF36F8FBFF34F8F16
:1049C000FEE700BF88000024094B1B6843B94FF085
:1049D000500383F31188BFF36F8FBFF34F8FFEE750
:1049E000013B034A13600BB983F31188704700BF82
:1049F000880000240000000000000000000000000B
:104A0000EFF30980BFF36F8F154B1A681EF0100F7C
:104A100008BF20ED108A20E9F04F10602DE9090051
:104A20004FF0500080F31188BFF34F8FBFF36F8FAB
:104A300001F096F94FF0000080F3118809BC196865
:104A40000868B0E8F04F1EF0100F08BFB0EC108AF5
:104A500080F30988BFF36F8F704700BFAFF300800A
:104A60008C96002408B54FF0500383F31188BFF3F0
:104A70006F8FBFF34F8F01F03BF828B14FF0E02369
:104A80004FF08052C3F8042D002383F3118808BD32
:104A90004FF0E022002313619361054B1B68054929
:104AA000A1FB03139B09013B53610723136170476B
:104AB00004000024D34D62104FF0E023D3F8002D02
:104AC0003D4B9A421CD04FF0E023D3F8002D3B4BD6
:104AD0009A421ED030B583B0394B1A78D2B20192C7
:104AE000FF221A701B78DBB28DF803309DF803307B
:104AF00003F05003334A1370334B07221A601BE054
:104B00004FF0500383F31188BFF36F8FBFF34F8FC4
:104B1000FEE74FF0500383F31188BFF36F8FBFF3AD
:104B20004F8FFEE7284A1368013B13609DF803305E
:104B30005B00DBB28DF803309DF8033013F0800F7B
:104B4000F0D1214B1B68032B08D04FF0500383F3A7
:104B50001188BFF36F8FBFF34F8FFEE71B021A4A16
:104B6000136003F4E0631360019BDBB2144A13701B
:104B70004FF0E024D4F8203D43F47003C4F8203D06
:104B8000D4F8203D43F07043C4F8203DFFF780FF88
:104B900000250E4B1D60FFF7C3FED4F8343F43F0F1
:104BA0004043C4F8343FFFF7A7FE01F0D9F8FFF700
:104BB00083FE284603B030BD71C20F4170C20F4161
:104BC00000E400E02C55002428550024880000242F
:104BD000EFF305830F2B0ED9114A9A5C114B1B780A
:104BE0009A4208D24FF0500383F31188BFF36F8FBE
:104BF000BFF34F8FFEE74FF0E023D3F80C3D03F4F3
:104C0000E063094A1268934208D94FF0500383F3D6
:104C10001188BFF36F8FBFF34F8FFEE7704700BF60
:104C2000F0E300E02C55002428550024124A12F02D
:104C3000070F1ED0D11D21F00701C1F57053134499
:104C40000A460E480260002141601344083B23F0ED
:104C500007030B48036059601960991A516013608B
:104C6000084B1960084B1960084B4FF000421A605E
:104C700070474FF47053E4E7505500244855002422
:104C8000445500243C550024405500243055002450
:104C9000164B1A461B688342FBD3516802EB010C8A
:104CA000844509D0416800EB010C634509D00360DD
:104CB000904219D01060704740680144516010461E
:104CC000F0E710B40A4C2468A3420BD05B68194487
:104CD000416013681B680360904200D010605DF86B
:104CE000044B70470460F7E7704700BF4855002445
:104CF0004455002438B5044600F0ECFE384B1B68E0
:104D0000B3B1384B1B681C4250D1002C50D004F179
:104D1000080214F0070F02D022F007020832002A1E
:104D200055D0314B1B68934253D330490C6804E093
:104D3000FFF77CFFE5E721461C466368934202D2F9
:104D40002368002BF7D1264B1B68A34243D00D6884
:104D5000083523680B6063689B1A102B10D9A018C4
:104D600010F0070F08D04FF0500383F31188BFF302
:104D70006F8FBFF34F8FFEE743606260FFF788FFDE
:104D8000626819490B689B1A0B60194909688B42C4
:104D900001D217490B60134B1B6813436360002358
:104DA0002360144A13680133136002E0002500E019
:104DB000002500F02DFF15F0070F0ED04FF0500327
:104DC00083F31188BFF36F8FBFF34F8FFEE700258A
:104DD000EFE70025EDE70025EBE7284638BD00BFEB
:104DE00044550024305500244055002448550024E3
:104DF0003C55002438550024002834D038B50446EA
:104E0000A0F1080550F8043C174A1268134208D173
:104E10004FF0500383F31188BFF36F8FBFF34F8FB1
:104E2000FEE750F8081C41B14FF0500383F311889E
:104E3000BFF36F8FBFF34F8FFEE723EA020340F803
:104E4000043C00F047FE54F8041C084A13680B4465
:104E500013602846FFF71CFF054A136801331360EF
:104E600000F0D6FE38BD7047305500244055002470
:104E70003455002410B50446FFF784FDA26BE36BA4
:104E80009A4204D00024FFF79FFD204610BD012464
:104E9000F9E710B50446FFF775FDA36B23B90124AC
:104EA000FFF792FD204610BD0024F9E770B50446D7
:104EB0001546866B026C5AB903681BB10020013697
:104EC000A66370BD806801F08DF80023A360F6E74B
:104ED0006DB94068FBF7F2FF6368226C13446360AE
:104EE000A268934219D3236863602846E7E7C06845
:104EF000FBF7E4FFE368226C51429B1AE3602268EF
:104F0000934202D2A3680B44E360022D01D000203B
:104F1000D5E726B1013E0020D1E72846CFE70020A3
:104F2000CDE70346026C6AB110B50846D968114452
:104F3000D9609C68A14201D31968D960D968FBF790
:104F4000BDFF10BD704738B50546FFF71BFD95F84E
:104F5000454064B201E0013C64B2002C0ADD6B6A9A
:104F600043B105F1240000F08FFF0028F3D001F0D9
:104F700023F8F0E7FF2385F84530FFF725FDFFF71D
:104F800001FD95F8444064B201E0013C64B2002C9C
:104F90000ADD2B6943B105F1100000F075FF002810
:104FA000F3D001F009F8F0E7FF2385F84430FFF76C
:104FB0000BFD38BD38B5E0B10D460446FFF7E2FC05
:104FC0002368E26B216C01FB0230A0600020A0632B
:104FD0006360013A02FB0133E360FF2384F844304D
:104FE00084F84530FDB9236963B9FFF7EDFC012072
:104FF00038BD4FF0500383F31188BFF36F8FBFF3B9
:105000004F8FFEE704F1100000F03EFF0028ECD0C7
:105010004FF0E0234FF08052C3F8042DBFF34F8FC1
:10502000BFF36F8FE1E704F11000FFF7FFFB04F11E
:105030002400FFF7FBFBD8E7F8B505461E46069CA3
:105040000F4679B92460E563276401212046FFF704
:10505000B1FF84F84C6033463A462946732001F08C
:1050600047FDF8BD2260EEE740B94FF0500383F3EF
:105070001188BFF36F8FBFF34F8FFEE710B584B079
:105080001C4683B10B1E18BF0123002A08BF43F042
:1050900001038BB94FF0500383F31188BFF36F8F77
:1050A000BFF34F8FFEE74FF0500383F31188BFF338
:1050B0006F8FBFF34F8FFEE7B1FA81F35B09002AD0
:1050C00018BF43F0010343B94FF0500383F3118835
:1050D000BFF36F8FBFF34F8FFEE750230393039B04
:1050E000502B08D04FF0500383F31188BFF36F8F1C
:1050F000BFF34F8FFEE7039B012384F846300094F3
:105100009DF81830FFF798FF204604B010BDF0B5A9
:1051100087B0039288B10E461D460446B1B1022DF8
:1051200020D1E36B012B1DD04FF0500383F3118886
:10513000BFF36F8FBFF34F8FFEE74FF0500383F342
:105140001188BFF36F8FBFF34F8FFEE7036C002B07
:10515000E5D04FF0500383F31188BFF36F8FBFF397
:105160004F8FFEE700F02EFF074658B9039B002B38
:105170005CD04FF0500383F31188BFF36F8FBFF300
:105180004F8FFEE7002751E0204601F095FA0146D7
:105190000095039B32465A2001F0E4FC2A46314632
:1051A0002046FFF783FE636A7BB948B14FF0E023E6
:1051B0004FF08052C3F8042DBFF34F8FBFF36F8FB2
:1051C000FFF702FC012007B0F0BD04F1240000F05D
:1051D0005BFE0028F4D04FF0E0234FF08052C3F87C
:1051E000042DBFF34F8FBFF36F8FE9E7FFF7ECFBA1
:1051F000204601F061FA01460095039B32465A2091
:1052000001F0B0FC0020DEE704A800F085FE0127D5
:1052100019E0002384F8443021E0002384F845306D
:1052200023E02046FFF78FFE00F0F2FCFFF7AAFB19
:10523000A26BE36B9A42A7D3022DA5D0039B002B50
:10524000D4D0002FE0D0FFF7BFFB00F043FCFFF706
:1052500099FB94F8442052B2B2F1FF3FD9D094F8B0
:10526000452052B2B2F1FF3FD7D0FFF7ADFB03A903
:1052700004A800F05DFED8B92046FFF7FBFD00282A
:10528000CFD0039904F1100000F0C6FD2046FFF7CF
:105290005AFE00F0BDFC0028C8D14FF0E0234FF0CB
:1052A0008052C3F8042DBFF34F8FBFF36F8FBDE75C
:1052B0002046FFF748FE00F0ABFC204601F0FCF969
:1052C00001460095039B32465A2001F04BFC00201A
:1052D00079E72DE9F84390B10F4616461C4605467E
:1052E000B1B1022C20D1EB6B012B1DD04FF050033C
:1052F00083F31188BFF36F8FBFF34F8FFEE74FF03B
:10530000500383F31188BFF36F8FBFF34F8FFEE716
:10531000036C002BE5D04FF0500383F31188BFF3EB
:105320006F8FBFF34F8FFEE7FFF752FCEFF311894A
:105330004FF0500383F31188BFF36F8FBFF34F8F8C
:10534000AA6BEB6B9A4201D3022C2BD195F84580C6
:105350004FFA88F8AB6B284601F0AEF901463246A9
:10536000602001F083FB224639462846FFF79EFD68
:10537000B8F1FF3F09D008F101035BB285F8453071
:10538000012089F31188BDE8F8836B6A0BB901200D
:10539000F7E705F1240000F077FD68B176B1012050
:1053A0003060EEE7284601F087F90146324660207A
:1053B00001F05CFB0020E4E70120E2E70120E0E7E8
:1053C000F0B587B0039290B10F460446C1B100F02A
:1053D000F9FD064600BB039B002B7CD04FF0500329
:1053E00083F31188BFF36F8FBFF34F8FFEE74FF04A
:1053F000500383F31188BFF36F8FBFF34F8FFEE726
:10540000036C002BE3D04FF0500383F31188BFF3FC
:105410006F8FBFF34F8FFEE700265CE039462046D2
:10542000FFF77FFD204601F047F90646002001F016
:1054300043F9024601230093039B31465C2001F0AF
:1054400091FB013DA563236923B9FFF7BDFA012054
:1054500007B0F0BD04F1100000F016FD0028F4D0F4
:105460004FF0E0234FF08052C3F8042DBFF34F8F6D
:10547000BFF36F8FE9E7FFF7A7FA204601F01CF9A9
:105480000446002001F018F9024601230093039B13
:1054900021465C2001F066FB0020D9E704A800F05B
:1054A0003BFD012621E0002384F8443029E000235D
:1054B00084F845302BE02046FFF745FD00F0A8FBBF
:1054C00009E02046FFF73FFD00F0A2FB2046FFF772
:1054D000E0FC00283FD1FFF755FAA56B002D9DD1C8
:1054E000039B002BC7D0002ED8D0FFF76DFA00F039
:1054F000F1FAFFF747FA94F844305BB2B3F1FF3F9B
:10550000D1D094F845305BB2B3F1FF3FCFD0FFF775
:105510005BFA03A904A800F00BFD0028D1D12046B6
:10552000FFF7B7FC0028C6D0039904F1240000F06F
:1055300073FC2046FFF707FD00F06AFB0028CAD184
:105540004FF0E0234FF08052C3F8042DBFF34F8F8C
:10555000BFF36F8FBFE7204601F0AEF8044600208E
:1055600001F0AAF8024601230093039B21465C2028
:1055700001F0F8FA00206BE710B50C460023072B6A
:1055800012D80A4A52F833200AB10133F7E7074A22
:1055900042F8334002EBC302506001F08DF801463F
:1055A0002246712001F062FA10BD00BF5091002424
:1055B00070B504460D461646FFF7E4F994F84430FA
:1055C0005BB2B3F1FF3F0DD094F845305BB2B3F15D
:1055D000FF3F0BD0FFF7F8F9A36B5BB12046FFF755
:1055E000B2FC70BD002384F84430EDE7002384F85A
:1055F0004530EFE73246294604F1240000F024FC50
:10560000ECE70000084B1B681B6823B9074B4FF001
:10561000FF321A607047044B1B68DB68DB685A680E
:10562000024B1A60704700BF00920024989100243A
:105630002DE9F04780460D4617469946089EDDF84D
:1056400024A00A9C9200A521206B0CF0F1FA236B98
:105650006FF040423A4403EB820727F00707A5B3F7
:105660004FF0000CBCF10F0F09D815F80C3004EB0B
:105670000C0282F8343013B10CF1010CF2E7002374
:1056800084F84330372E00D93726E662E6640025D9
:105690002565201DFFF7D5F804F11800FFF7D1F8B4
:1056A0002461C6F13806A6616462656584F85850C5
:1056B0004A4641463846FFF73DF92060BAF1000FEF
:1056C00001D0CAF80040BDE8F087002384F83430E8
:1056D000D8E7000038B5002407E004EB840293000B
:1056E0000E481844FFF7A2F80134372CF5D90C4DB9
:1056F0002846FFF79BF80B4C2046FFF797F80A481F
:10570000FFF794F80948FFF791F80948FFF78EF87A
:10571000084B1D60084B1C6038BD00BF2C92002454
:105720001892002404920024E8910024D4910024CB
:10573000BC91002400920024FC91002410B582B09A
:105740000446FFF71FF92B4A1368013313602A4BF5
:105750001B685BB1294B1B686BB9274B1B68DA6A66
:10576000E36A9A4207D8244B1C6004E0224B1C6079
:105770001368012B3BD0224A136801331360636422
:1057800064B1204601F00EFB236B2268D21A00920E
:10579000E26A04F13401204601F0E6FB204601F004
:1057A00049FBE06A174B1B68984201D9154B1860FA
:1057B00000EB8000211D144B03EB8000FFF744F841
:1057C000FFF702F90D4B1B687BB10B4B1B68DA6AC4
:1057D000E36A9A4209D24FF0E0234FF08052C3F8B7
:1057E000042DBFF34F8FBFF36F8F02B010BDFFF7D3
:1057F00071FFC0E7B89100248C960024AC9100247E
:105800009C910024B09100242C92002410B50446F1
:1058100090F8593063B1012B11D0022B0ED04FF00C
:10582000500383F31188BFF36F8FBFF34F8FFEE7F1
:10583000006BFFF7E1FA2046FFF7DEFA10BDFFF735
:10584000DBFAFBE70F4B1B68D3B110B5FFF79AF8F3
:105850000D4BDB68DC68201DFFF71AF80B4A136854
:10586000013B1360074A1368013B1360FFF7ACF874
:105870002046FFF7CBFF034B1B68002BE6D110BD82
:10588000704700BFD0910024D4910024B891002427
:1058900008B5FFF7D7FF074B1B68012BF9D94FF06D
:1058A000E0234FF08052C3F8042DBFF34F8FBFF3B6
:1058B0006F8FEEE72C92002470B504460D46194B0D
:1058C0001E68194B18680430FEF7E2FFB4F1FF3F81
:1058D00014BF00230123002D08BF00236BB93444FB
:1058E000114B1B685C60A6420ED9104B18680E4B1A
:1058F00019680431FEF7B3FF70BD0B4B1968043112
:105900000B48FEF7A1FFF7E70A4B1868064B19682A
:105910000431FEF7A4FF084B1B68A342ECD9064BE9
:105920001C60E9E7B49100248C960024FC910024CB
:10593000BC910024009200249891002430B587B0D7
:105940000B9C7CB10C9DB5B15C250495049D5C2D30
:105950001AD04FF0500383F31188BFF36F8FBFF35A
:105960004F8FFEE74FF0500383F31188BFF36F8F23
:10597000BFF34F8FFEE74FF0500383F31188BFF35F
:105980006F8FBFF34F8FFEE7049D0C9D2C630224A5
:1059900085F8594000240394029505AC01940A9CB3
:1059A0000094FFF745FE0C98FFF7C8FE059807B076
:1059B00030BD2DE9F04385B00746884614461E46A3
:1059C0009000FFF797F908B381465C20FFF792F942
:1059D0000546A8B1C0F83090002380F859300393F1
:1059E00002900D9B01930C9B009333462246414647
:1059F0003846FFF71DFE2846FFF7A0FE012007E00E
:105A00004846FFF7F9F94FF0FF3001E04FF0FF3063
:105A100005B0BDE8F083000010B588B000240594FF
:105A2000069407AA06A905A8FEF7E8FE059B0293BF
:105A3000069B019300942346079A1F491F48FFF7CE
:105A40007DFF1F4B186020B300F08CFB012821D193
:105A50004FF0500383F31188BFF36F8FBFF34F8F65
:105A6000184B4FF0FF321A60174B01221A60174B88
:105A700000221A60164B186805220F4934300CF0CA
:105A8000A9F860B1124B186801F0B0F9FFF714F8EB
:105A900003E00020B0F1FF3F04D008B010BD01F0DA
:105AA0006DF9F3E74FF0500383F31188BFF36F8F65
:105AB000BFF34F8FFEE700BF701F01089158000829
:105AC0009491002498910024AC910024B491002476
:105AD0008C960024024A136801331360704700BF9C
