:020000040800F2
:100000000000052445260008C9190008CB1900087E
:10001000CD190008CF190008D11900080000000010
:10002000000000000000000000000000614D00081A
:10003000D319000800000000014E0008AD4A000876
:100040009926000899260008992600089926000894
:100050009926000899260008992600089926000884
:100060009926000899260008992600089926000874
:10007000D519000899260008992600089926000835
:10008000992600089926000899260008E519000815
:10009000F5190008051A0008151A00089926000825
:1000A0009926000899260008992600089926000834
:1000B000251A0008992600089926000899260008A4
:1000C0009926000899260008992600089926000814
:1000D00099260008351A0008992600089926000874
:1000E000451A00089926000800000000992600081B
:1000F00099260008992600089926000899260008E4
:1001000099260008992600089926000899260008D3
:1001100099260008992600089926000899260008C3
:1001200099260008992600089926000899260008B3
:1001300099260008992600089926000899260008A3
:1001400000000000000000000000000000000000AF
:100150009926000899260008992600089926000883
:100160009926000899260008992600089926000873
:1001700099260008591A0008992600080000000076
:100180009926000899260008992600089926000853
:100190009926000899260008992600089926000843
:1001A00099260008992600089926000800000000FA
:1001B0009926000899260008992600089926000823
:1001C00099260008992600080000000000000000A1
:1001D0000000000000000000992600080000000058
:1001E000000000000000000000000000000000000F
:1001F0000000000000000000992600089926000871
:100200009926000899260008000000009926000899
:1002100099260008992600089926000899260008C2
:100220009926000800000000992600080000000040
:100230009926000899260008000000009926000869
:100240009926000899260008992600089926000892
:100250009926000899260008992600089926000882
:100260009926000899260008992600089926000872
:100270009926000899260008992600080000000029
:100280009926000899260008992600089926000852
:1002900000000000992600089926000800000000D0
:1002A00000000000992600089926000899260008F9
:1002B000992600089926000899260008691A00085E
:0C02C000791A0008992600089926000809
:1003000081F0004102E000BF83F0004330B54FEAC6
:1003100041044FEA430594EA050F08BF90EA020F33
:100320001FBF54EA000C55EA020C7FEA645C7FEAC6
:10033000655C00F0E2804FEA5454D4EB5555B8BFE9
:100340006D420CDD2C4480EA020281EA030382EA5A
:10035000000083EA010180EA020281EA0303362DEC
:1003600088BF30BD11F0004F4FEA01314FF4801CBF
:100370004CEA113102D0404261EB410113F0004FD1
:100380004FEA03334CEA133302D0524263EB430388
:1003900094EA050F00F0A780A4F10104D5F1200E26
:1003A0000DDB02FA0EFC22FA05F2801841F1000181
:1003B00003FA0EF2801843FA05F359410EE0A5F155
:1003C00020050EF1200E012A03FA0EFC28BF4CF086
:1003D000020C43FA05F3C01851EBE37101F000453C
:1003E00007D54FF0000EDCF1000C7EEB00006EEB49
:1003F0000101B1F5801F1BD3B1F5001F0CD34908D3
:100400005FEA30004FEA3C0C04F101044FEA445229
:1004100012F5800F80F09A80BCF1004F08BF5FEAB0
:10042000500C50F1000041EB045141EA050130BD90
:100430005FEA4C0C404141EB0101013C28BFB1F5A2
:10044000801FE9D291F0000F04BF01460020B1FAED
:1004500081F308BF2033A3F10B03B3F120020CDAC0
:100460000C3208DD02F1140CC2F10C0201FA0CF09E
:1004700021FA02F10CE002F11402D8BFC2F1200C03
:1004800001FA02F120FA0CFCDCBF41EA0C019040B9
:10049000E41AA2BF01EB0451294330BD6FEA040402
:1004A0001F3C1CDA0C340EDC04F11404C4F12002ED
:1004B00020FA04F001FA02F340EA030021FA04F3FF
:1004C00045EA030130BDC4F10C04C4F1200220FA56
:1004D00002F001FA04F340EA0300294630BD21FA94
:1004E00004F0294630BD94F0000F83F4801306BF5A
:1004F00081F480110134013D4EE77FEA645C18BF4E
:100500007FEA655C29D094EA050F08BF90EA020FE4
:1005100005D054EA000C04BF1946104630BD91EADC
:10052000030F1EBF0021002030BD5FEA545C05D1DF
:100530004000494128BF41F0004130BD14F580041E
:100540003CBF01F5801130BD01F0004545F0FE4192
:1005500041F470014FF0000030BD7FEA645C1ABFC7
:10056000194610467FEA655C1CBF0B46024650EAFE
:10057000013406BF52EA033591EA030F41F400212A
:1005800030BD00BF90F0000F04BF0021704730B5B0
:100590004FF4806404F132044FF000054FF0000185
:1005A00050E700BF90F0000F04BF0021704730B546
:1005B0004FF4806404F1320410F0004548BF40421B
:1005C0004FF000013EE700BF42004FEAE2014FEA70
:1005D00031014FEA02701FBF12F07F4393F07F4F4B
:1005E00081F06051704732F07F4208BF704793F04E
:1005F0007F4F04BF41F40021704730B54FF4607461
:1006000001F0004521F000411CE700BF50EA010263
:1006100008BF704730B54FF000050AE050EA01020C
:1006200008BF704730B511F0004502D5404261EB7C
:1006300041014FF4806404F132045FEA915C3FF4BD
:10064000D8AE4FF003025FEADC0C18BF03325FEA5A
:10065000DC0C18BF033202EBDC02C2F1200300FA0B
:1006600003FC20FA02F001FA03FE40EA0E0021FA30
:1006700002F11444BDE600BF70B54FF0FF0C4CF41E
:10068000E06C1CEA11541DBF1CEA135594EA0C0FD0
:1006900095EA0C0F00F0DEF82C4481EA030621EA0B
:1006A0004C5123EA4C5350EA013518BF52EA033546
:1006B00041F4801143F4801338D0A0FB02CE4FF0F8
:1006C0000005E1FB02E506F00042E0FB03E54FF028
:1006D0000006E1FB03569CF0000F18BF4EF0010E20
:1006E000A4F1FF04B6F5007F64F5407404D25FEA1C
:1006F0004E0E6D4146EB060642EAC62141EA5551CF
:100700004FEAC52040EA5E504FEACE2EB4F1FD0C10
:1007100088BFBCF5E06F1ED8BEF1004F08BF5FEA8E
:10072000500E50F1000041EB045170BD06F0004640
:1007300046EA010140EA020081EA0301B4EB5C04ED
:10074000C2BFD4EB0C0541EA045170BD41F48011E5
:100750004FF0000E013C00F3AB8014F1360FDEBF0A
:10076000002001F0004170BDC4F10004203C35DAE6
:100770000C341BDC04F11404C4F1200500FA05F369
:1007800020FA04F001FA05F240EA020001F000420A
:1007900021F0004110EBD37021FA04F642EB060180
:1007A0005EEA430E08BF20EAD37070BDC4F10C04AA
:1007B000C4F1200500FA04F320FA05F001FA04F26E
:1007C00040EA020001F0004110EBD37041F100015A
:1007D0005EEA430E08BF20EAD37070BDC4F1200565
:1007E00000FA05F24EEA020E20FA04F301FA05F2CD
:1007F00043EA020321FA04F001F0004121FA04F275
:1008000020EA020000EBD3705EEA430E08BF20EA44
:10081000D37070BD94F0000F0FD101F0004640007E
:1008200041EB010111F4801F08BF013CF7D041EA00
:10083000060195F0000F18BF704703F00046520004
:1008400043EB030313F4801F08BF013DF7D043EAD5
:100850000603704794EA0C0F0CEA135518BF95EA8B
:100860000C0F0CD050EA410618BF52EA4306D1D112
:1008700081EA030101F000414FF0000070BD50EA31
:10088000410606BF1046194652EA430619D094EABB
:100890000C0F02D150EA013613D195EA0C0F05D1A5
:1008A00052EA03361CBF104619460AD181EA0301F9
:1008B00001F0004141F0FE4141F470014FF00000B1
:1008C00070BD41F0FE4141F4780170BD70B54FF04C
:1008D000FF0C4CF4E06C1CEA11541DBF1CEA1355CC
:1008E00094EA0C0F95EA0C0F00F0A7F8A4EB0504AE
:1008F00081EA030E52EA03354FEA013100F08880A5
:100900004FEA03334FF0805545EA131343EA12636D
:100910004FEA022245EA111545EA10654FEA002622
:100920000EF000419D4208BF964244F1FD0404F5DB
:10093000407402D25B084FEA3202B61A65EB030537
:100940005B084FEA32024FF480104FF4002CB6EBF4
:10095000020E75EB030E22BFB61A754640EA0C0074
:100960005B084FEA3202B6EB020E75EB030E22BFB4
:10097000B61A754640EA5C005B084FEA3202B6EBF5
:10098000020E75EB030E22BFB61A754640EA9C00B4
:100990005B084FEA3202B6EB020E75EB030E22BF84
:1009A000B61A754640EADC0055EA060E18D04FEA42
:1009B000051545EA16754FEA06164FEAC30343EAE2
:1009C00052734FEAC2025FEA1C1CC0D111F4801FAF
:1009D0000BD141EA00014FF000004FF0004CB6E7A8
:1009E00011F4801F04BF01430020B4F1FD0C88BF47
:1009F000BCF5E06F3FF6AFAEB5EB030C04BFB6EB52
:100A0000020C5FEA500C50F1000041EB045170BD44
:100A10000EF0004E4EEA113114EB5C04C2BFD4EB71
:100A20000C0541EA045170BD41F480114FF0000EF5
:100A3000013C90E645EA060E8DE60CEA135594EA71
:100A40000C0F08BF95EA0C0F3FF43BAF94EA0C0F74
:100A50000AD150EA01347FF434AF95EA0C0F7FF4E9
:100A600025AF104619462CE795EA0C0F06D152EA3D
:100A700003353FF4FDAE1046194622E750EA410621
:100A800018BF52EA43067FF4C5AE50EA41047FF432
:100A90000DAF52EA43057FF4EBAE12E74FF0FF3C97
:100AA00006E000BF4FF0010C02E000BF4FF0010C68
:100AB0004DF804CD4FEA410C7FEA6C5C4FEA430CE1
:100AC00018BF7FEA6C5C1BD001B050EA410C0CBF30
:100AD00052EA430C91EA030F02BF90EA020F002092
:100AE000704710F1000F91EA030F58BF994208BFF9
:100AF00090422CBFD8176FEAE37040F001007047B6
:100B00004FEA410C7FEA6C5C02D150EA013C07D10C
:100B10004FEA430C7FEA6C5CD6D152EA033CD3D057
:100B20005DF8040B704700BF8446104662468C4651
:100B30001946634600E000BF01B5FFF7B7FF002884
:100B400048BF10F1000F01BD4DF808EDFFF7F4FFAD
:100B50000CBF012000205DF808FB00BF4DF808ED38
:100B6000FFF7EAFF34BF012000205DF808FB00BF5B
:100B70004DF808EDFFF7E0FF94BF012000205DF87D
:100B800008FB00BF4DF808EDFFF7CEFF94BF012032
:100B900000205DF808FB00BF4DF808EDFFF7C4FF2B
:100BA00034BF012000205DF808FB00BF4FEA410C74
:100BB0007FEA6C5C02D150EA013C0AD14FEA430C57
:100BC0007FEA6C5C02D152EA033C02D14FF0000094
:100BD00070474FF0010070474FEA410212F50012D2
:100BE00015D211D56FF47873B3EB625212D94FEA74
:100BF000C12343F0004343EA505311F0004F23FA5E
:100C000002F018BF404270474FF00000704750EAB2
:100C1000013005D111F0004008BF6FF0004070476F
:100C20004FF00000704700BF4FEA4102B2F1E043CD
:100C300024BFB3F5001CDCF1FE5C0DD901F0004CC3
:100C40004FEAC0024CEA5070B2F1004F40EB830013
:100C500008BF20F00100704711F0804F21D113F13F
:100C60003872BCBF01F00040704741F480114FEA78
:100C70005252C2F11802C2F1200C10FA0CF320FA01
:100C800002F018BF40F001004FEAC1234FEAD3231E
:100C900003FA0CFC40EA0C0023FA02F34FEA430388
:100CA000CCE77FEA625307D150EA01331EBF4FF011
:100CB000FE4040F44000704701F0004040F0FE402C
:100CC00040F40000704700BF53B94AB9002908BF7B
:100CD00000281CBF4FF0FF314FF0FF3000F0E2B8AA
:100CE000ADF1080C6DE904CE0FF06AFBDDF804E00D
:100CF000DDE9022304B0704700F1340191E83800C7
:100D00009C46A6464CF8045D90E8FF0FE54600BD02
:100D100090EC210B704700BF80EC210B704700BFA7
:100D200090EC200B704700BF80EC200B704700BF99
:100D3000D0EC200B704700BFC0EC200B704700BF09
:100D4000F0EC0201F0EC0211F0EC0221F0EC0231C7
:100D5000F0EC0241F0EC0251F0EC0261F0EC0271B7
:100D6000F0EC0281F0EC0291F0EC02A1F0EC02B1A7
:100D7000F0EC02C1F0EC02D1F0EC02E1F0EC02F197
:100D8000704700BFE0EC0201E0EC0211E0EC022150
:100D9000E0EC0231E0EC0241E0EC0251E0EC0261F7
:100DA000E0EC0271E0EC0281E0EC0291E0EC02A1E7
:100DB000E0EC02B1E0EC02C1E0EC02D1E0EC02E1D7
:100DC000E0EC02F1704700BFB0FC0181B0FC019182
:100DD000B0FC01A1B0FC01B1704700BFA0FC0181D3
:100DE000A0FC0191A0FC01A1A0FC01B1704700BFD3
:100DF000EC4600B52DE900502DE9FF1F4FF0000330
:100E00002DE90C0001A90FF0B5FDDDF840E012B0AE
:100E1000704700BFEC4600B52DE900502DE9FF1FDB
:100E20004FF000032DE90C0001A90FF0E1FDDDF802
:100E300040E012B0704700BFEC4600B52DE900500D
:100E40002DE9FF1F4FF000032DE90C0001A90FF061
:100E5000F1FDDDF840E012B0704700BFEC4600B590
:100E60002DE900502DE9FF1F4FF000032DE90C0084
:100E700001AB0FF0B5FDDDF840E012B0704700BFE8
:100E8000EC4600B52DE900502DE9FF1F4FF000039F
:100E90002DE90C0001AA0FF029FEDDF840E012B0A8
:100EA000704700BF704700BF844641EA000313F05B
:100EB00003036DD1403A41D351F8043B40F8043B61
:100EC00051F8043B40F8043B51F8043B40F8043B24
:100ED00051F8043B40F8043B51F8043B40F8043B14
:100EE00051F8043B40F8043B51F8043B40F8043B04
:100EF00051F8043B40F8043B51F8043B40F8043BF4
:100F000051F8043B40F8043B51F8043B40F8043BE3
:100F100051F8043B40F8043B51F8043B40F8043BD3
:100F200051F8043B40F8043B51F8043B40F8043BC3
:100F300051F8043B40F8043B403ABDD2303211D363
:100F400051F8043B40F8043B51F8043B40F8043BA3
:100F500051F8043B40F8043B51F8043B40F8043B93
:100F6000103AEDD20C3205D351F8043B40F8043B63
:100F7000043AF9D2043208D0D2071CBF11F8013B61
:100F800000F8013B01D30B8803806046704700BF27
:100F9000082A13D38B078DD010F003038AD0C3F136
:100FA0000403D21ADB071CBF11F8013B00F8013B18
:100FB00080D331F8023B20F8023B7BE7043AD9D3D7
:100FC000013A11F8013B00F8013BF9D20B780370AC
:100FD0004B7843708B788370604670470000000048
:100FE0000000000000000000000000000000000001
:100FF00000000000000000000000000000000000F1
:1010000030B490F800F020F007016FF0000C10F001
:10101000070491F820F040F048804FF000046FF092
:101020000700D1E9002391F840F000F1080082FAAE
:101030004CF2A4FA8CF283FA4CF3A2FA8CF34BBB79
:10104000D1E9022382FA4CF200F10800A4FA8CF2F2
:1010500083FA4CF3A2FA8CF3E3B9D1E9042382FAC0
:101060004CF200F10800A4FA8CF283FA4CF3A2FAD5
:101070008CF37BB9D1E9062301F1200182FA4CF20D
:1010800000F10800A4FA8CF283FA4CF3A2FA8CF374
:10109000002BC6D0002A04BF04301A4612BAB2FA96
:1010A00082F200EBD20030BC7047D1E9002304F09B
:1010B0000305C4F100004FEAC50514F0040F91F8D0
:1010C00040F00CFA05F562EA05021CBF63EA05036D
:1010D00062464FF00004AAE7000000000000000094
:1010E00001F0FF01102A2BDB10F0070F08D010F8D9
:1010F000013B013A8B422DD010F0070F42B3F6D1DD
:10110000F0B441EA012141EA014122F007047FF0F5
:1011100000070023F0E80256083C85EA010586EA4C
:10112000010685FA47F5A3FA87F586FA47F6A5FA88
:1011300087F68EB9EED1F0BC01F0FF0102F0070294
:1011400032B110F8013B013A83EA010313B1F8D13F
:101150000020704701387047002D06BF3546033820
:10116000073815F0010F07D1013015F4807F02BF59
:10117000013015F4C03F0130F0BC0138704700BFAA
:1011800010B5054C237833B9044B13B10448AFF3C1
:1011900000800123237010BDF00700240000000030
:1011A0005481010808B5034B1BB103490348AFF351
:1011B000008008BD00000000F407002454810108ED
:1011C00000B583B00B4BD3F8D82042F00102C3F82E
:1011D000D820D3F8D83003F001030193019B0022FB
:1011E00005210C2005F092FB0C2005F09FFB03B0BD
:1011F0005DF804FB0044025810B51748174B036014
:1012000000218160C160012303744174837402234F
:1012100043610F2282612C24C4610262436206236F
:1012200083621122C2620363416304238363C36345
:101230000822026443648264C36402654365826574
:10124000C26502664166836607F03AF800B910BDD0
:1012500000F01BFAFBE700BF5009002400A000408B
:1012600008B51848184B036000218160C160017403
:10127000417401238374022343610F2383613B2262
:10128000C261036205234362062383621722C2629E
:10129000036340F25533436304238363C36308222B
:1012A000026443648264C364026543658265C26507
:1012B00002664166836607F003F800B908BD00F0D6
:1012C000E4F9FBE7B008002400A4004008B5184882
:1012D000184B036000228260C26002744274827400
:1012E000022343610F2383612C21C1610362052323
:1012F0004362062383621121C162036340F2AA6341
:10130000436304238363C3630821016443648164EA
:10131000C364016543658165C16501664266836694
:1013200006F0CEFF00B908BD00F0AFF9FBE700BF43
:101330001008002400D4004010B58CB0002307939F
:10134000089309930A930B930368604A934207D06A
:101350005F4A934240D05F4A934279D00CB010BDAF
:101360005D4A136801331360012B27D05B4BD3F820
:10137000E02042F00802C3F8E020D3F8E03003F0A8
:1013800008030293029B0323079302230893092374
:101390000B9307A9524807F04BFC002206211320AB
:1013A00005F0B4FA132005F0C1FA00220621152039
:1013B00005F0ACFA152005F0B9FACFE7474BD3F8A2
:1013C000EC2042F48072C3F8EC20D3F8EC3003F444
:1013D00080730193019BC9E73F4A1368013313608F
:1013E000012B27D03D4BD3F8E02042F00202C3F896
:1013F000E020D3F8E03003F002030493049B602361
:1014000007930223089309230B9307A9354807F094
:101410000FFC00220521142005F078FA142005F0B5
:1014200085FA00220521162005F070FA162005F035
:101430007DFA93E7294BD3F8EC2042F48072C3F88D
:10144000EC20D3F8EC3003F480730393039BC9E7DB
:10145000214A136801331360012B28D01F4BD3F8A6
:10146000E02042F00802C3F8E020D3F8E03003F0B7
:1014700008030693069B4FF44053079302230893F7
:1014800005240B9407A9164807F0D2FB0022214639
:101490009F2005F03BFA9F2005F048FA00222146E4
:1014A000A02005F033FAA02005F040FA56E70B4BD8
:1014B000D3F8EC2042F48072C3F8EC20D3F8EC307F
:1014C00003F480730593059BC8E700BF00A00040AC
:1014D00000A4004000D400400C080024004402583E
:1014E000000C02580004025808B500F05DFE02F03E
:1014F0008DFD012003F06EFBFBE7000008B5044AF8
:101500000021044803F00CFB034B186008BD00BF2A
:10151000D0840108E9140008F009002410B59AB03D
:101520000B464FF0500282F31188BFF36F8FBFF369
:101530004F8F01AC074A6421204610F067FB20461C
:10154000FFF75EFD0A2382B2214603480BF0A4FD9B
:101550001AB010BD14820108040D0024F0B58DB03E
:1015600007AD00240794089409940A940B943F4B08
:10157000D3F8E02042F01002C3F8E020D3F8E020D6
:1015800002F010020192019AD3F8E02042F0040226
:10159000C3F8E020D3F8E02002F004020292029A9D
:1015A000D3F8E02042F08002C3F8E020D3F8E02036
:1015B00002F080020392039AD3F8E02042F0020284
:1015C000C3F8E020D3F8E02002F002020492049A6B
:1015D000D3F8E02042F00802C3F8E020D3F8E0207E
:1015E00002F008020592059AD3F8E02042F00102C9
:1015F000C3F8E020D3F8E03003F001030693069B24
:101600001B4E012244F20901304607F01BFC4FF447
:10161000804307930127089709970A942946304683
:1016200007F006FB092307930897099403230A93FD
:101630002946304607F0FCFA4FF4A05307934FF4C5
:1016400088130893099429460A4807F0F1FA2146BD
:101650004FF0006005F0FEF822460621282005F034
:1016600055F9282005F062F90DB0F0BD004402588C
:10167000000802580010025808B50368B3F1804F03
:1016800000D008BD05F0C0F8FBE772B6FEE7000029
:1016900000B59DB04C22002109A810F047FB202284
:1016A000002101A810F042FB022008F051FA0023AB
:1016B0000093214B9A6922F440429A619B6903F49A
:1016C00040430093009B1C4B9B6913F4005FFAD0CE
:1016D000212309934FF480330A9301220F920223AE
:1016E000129313931493282115911692179318931C
:1016F0000C23199300231A931B9309A808F05AFA94
:10170000A8B93F23019303210291002303930823E7
:1017100004934023059306934FF480620792089345
:1017200001A808F035FE20B91DB05DF804FBFFF7F5
:10173000ACFFFFF7AAFF00BF0048025810B5AEB0DB
:10174000B8220021684610F0F1FA4FF4004200235D
:10175000CDE9002314230293C823039302230493A7
:1017600005930693202308934FF000531B9368467C
:1017700009F0D0F808B92EB010BDFFF786FF08B504
:1017800005F014F8FFF784FFFFF7D8FFFFF7E6FE38
:10179000FFF716FDFFF730FDFFF762FD00F0C0FA1E
:1017A00000F070FB00F0A2FB00F0D4FB00F00CF89E
:1017B000FFF78CFD00F022FB03F084F9FFF79EFE9B
:1017C00003F092F9FEE7000008B51548154B0360D9
:1017D0004FF480034360002383600722C2604FF010
:1017E000007202614FF0807242614FF0806282614C
:1017F0004FF08042C261036243628362C36242630C
:101800008363C363036443648364C36403654365A0
:10181000836509F0B5FF00B908BDFFF736FFFBE7A8
:10182000F409002400380040F0B5B9B004460021A6
:1018300033913491359136913791B82204A810F044
:1018400075FA2268284B9A4201D039B0F0BD4FF4A6
:1018500080520023CDE9042304A809F05BF8002896
:101860003ED1224BD3F8E82042F48042C3F8E8206E
:10187000D3F8E82002F480420192019AD3F8E020E4
:1018800042F00402C3F8E020D3F8E02002F00402A2
:101890000292029AD3F8E02042F00202C3F8E0205C
:1018A000D3F8E03003F002030393039B0623339342
:1018B000022734970024359436940526379633ADA5
:1018C00029460B4807F0B4F94FF40053339334978B
:1018D0003594369437962946064807F0A9F9B4E7B7
:1018E000FFF7D3FEBDE700BF0038004000440258B8
:1018F000000802580004025800B583B00A4BD3F820
:10190000F42042F00202C3F8F420D3F8F43003F0DC
:1019100002030193019B00220F216FF0010004F0EC
:10192000F5FF03B05DF804FB004402580F2801D90D
:101930000120704710B58AB00446002201461C20E1
:1019400004F0E4FF1C2004F0F1FF1B4B1C601B4B58
:10195000D3F8E82042F00102C3F8E820D3F8E830D9
:1019600003F001030093009B01A902A808F0A0FE68
:10197000079BC3B908F078FE0346114AA2FB032374
:101980009B0C013B0F484FF08042026040F2E7326F
:10199000C26043600023036183600AF0A5FA30B19E
:1019A00001200AB010BD08F05FFE4300E5E70548DE
:1019B0000AF0FAF8F5E700BF90000024004402584E
:1019C00083DE1B437C0A0024FEE7FEE7FEE7FEE71A
:1019D000FEE7704708B5024805F0A8FF08BD00BF44
:1019E000640B002408B5024806F092FF08BD00BF52
:1019F0005009002408B5024806F08AFF08BD00BF60
:101A0000B008002408B5024806F082FF08BD00BFF8
:101A10005009002408B5024806F07AFF08BD00BF4F
:101A2000B008002408B502480AF011F908BD00BF4B
:101A30007C0A002408B502480AF0D8FC08BD00BFA3
:101A4000700C002408B54FF4806007F001FA4FF4E1
:101A5000805007F0FDF908BD08B5024807F037FDD2
:101A600008BD00BF9C22002408B5024806F050FFC4
:101A700008BD00BF1008002408B5024806F048FF62
:101A800008BD00BF100800240120704708B510F001
:101A900045FA162303604FF0FF3008BD08B54FF03C
:101AA000FF31FFF7F3FFFEE770B50C461646002541
:101AB00006E0AFF30080214601F8010B01350C462A
:101AC000B542F6DB304670BD70B50C4616460025B3
:101AD00004E014F8010BAFF300800135B542F8DBE8
:101AE000304670BD4FF0FF3070474FF400534B60ED
:101AF00000207047012070470020704710B5034652
:101B00000C4A0D490D48006840B10C480068034478
:101B1000521A934206D8094A136010BD0748084C70
:101B20000460F2E710F0FAF90C2303604FF0FF3085
:101B3000F3E700BF0000052400040000C80A0024E9
:101B4000B8E400242B4AD2F8883043F47003C2F87A
:101B50008830294B1B6803F00F03062B06D8264A52
:101B6000136823F00F0343F007031360234B1A6835
:101B700042F001021A6000221A611968204A0A40E4
:101B80001A601D4B1B6813F0080F06D01A4A136821
:101B900023F00F0343F007031360184B00229A61F0
:101BA000DA611A62174999621749D96217491963AC
:101BB0005A639963DA6319645A64196821F48021BD
:101BC00019601A66D3F8D43013F4805F10D10B4B30
:101BD000D3F8D42042F48052C3F8D4200C4A43F204
:101BE000D2011160D3F8D42022F48052C3F8D4205B
:101BF000704700BF00ED00E0002000520044025892
:101C00007FEDF6EA000202020000FF0180020101FE
:101C100000400052054AD36843F00203D360034BEF
:101C20005B6813F4005FFAD0704700BF00480258A9
:101C300082B00368114A934204D0114A93420FD0F4
:101C400002B070470F4BD3F8F02042F00102C3F806
:101C5000F020D3F8F03003F001030093009BEFE78E
:101C6000084BD3F8E82042F00202C3F8E820D3F88A
:101C7000E83003F002030193019BE1E7000001401B
:101C8000000400400044025800B589B000230393CB
:101C9000049305930693079303681C4A934205D067
:101CA0001B4A93421BD009B05DF804FB194BD3F8D3
:101CB000E02042F01002C3F8E020D3F8E03003F057
:101CC00010030193019B4FF40853039302230493E1
:101CD0000123079303A9104806F0AAFFE3E70D4B81
:101CE000D3F8E02042F00202C3F8E020D3F8E0305D
:101CF00003F002030293029B0223039304930793CE
:101D000003A9064806F094FFCDE700BF000001409C
:101D10000004004000440258001002580004025819
:101D200010B598B000241594169417940E940F943F
:101D3000109411941294139414943422214601A8FF
:101D40000FF0F4FF2B482C4B036040F2BF3343608D
:101D500084604FF6FF73C3600461446184610AF0DC
:101D6000F3F8002837D1002315931693179315A97C
:101D700020480AF001FA002830D160230E93002297
:101D80000F92109211921292139214920EA9194866
:101D90000AF054F928BB08220EA916480AF04EF999
:101DA00010BB0023019302930393049305934FF414
:101DB00000520692079309934FF000720A920B9318
:101DC0000D9301A90B480AF02FFA80B90948FFF7D3
:101DD0005BFF18B010BDFFF758FCC4E7FFF755FCD8
:101DE000CBE7FFF752FCD6E7FFF74FFCD9E7FFF749
:101DF0004CFCEBE7180B00240000014000B58BB051
:101E0000002307930893099300930193029303938C
:101E10000493059306931948194A026017224260F9
:101E2000836042F20F72C2600361802383610AF013
:101E30008BF8C8B900230793099307A90F480AF044
:101E40009BF9A0B9602300930023019302930493AC
:101E50000C22694609480AF0F1F858B90748FFF71B
:101E600013FF0BB05DF804FBFFF70FFCE2E7FFF791
:101E70000CFCE7E7FFF709FCF0E700BFCC0A002401
:101E80000004004008B51748174B03604FF4E133D6
:101E9000436000238360C36003610C22426183615D
:101EA000C3610362436283620BF0C3F970B900211E
:101EB0000C480BF091FA60B900210A480BF0B1FA16
:101EC00050B908480BF069FA48B908BDFFF7DDFBC7
:101ED000EDE7FFF7DAFBEFE7FFF7D7FBF1E7FFF7F7
:101EE000D4FBF2E7040D00240078004008B5174841
:101EF000174B03604FF46123436000238360C3608A
:101F000003610C2242618361C361036243628362A5
:101F10000BF08FF970B900210C480BF05DFA60B935
:101F200000210A480BF07DFA50B908480BF035FA49
:101F300048B908BDFFF7A9FBEDE7FFF7A6FBEFE700
:101F4000FFF7A3FBF1E7FFF7A0FBF2E7700C00241B
:101F50000010014008B51748174B03604FF4E133F8
:101F6000436000238360C36003610C22426183618C
:101F7000C3610362436283620BF05BF970B90021B5
:101F80000C480BF029FA60B900210A480BF049FA15
:101F900050B908480BF001FA48B908BDFFF775FBC6
:101FA000EDE7FFF772FBEFE7FFF76FFBF1E7FFF7F6
:101FB0006CFBF2E7DC0B0024001C0140F0B5BBB069
:101FC0000446002135913691379138913991B822E4
:101FD00006A80FF0ABFE23686B4A934208D06B4A09
:101FE000934238D06A4A934200F08F803BB0F0BDF4
:101FF00002220023CDE9062306A808F08BFC38BB9B
:10200000644BD3F8E82042F08042C3F8E820D3F8CC
:10201000E82002F080420092009AD3F8E02042F0DB
:102020001002C3F8E020D3F8E03003F0100301936E
:10203000019B4FF4C07335930223369300233793EB
:1020400038930723399335A9534806F0F1FDCDE7BE
:10205000FFF71BFBD4E701220023CDE9062306A8E6
:1020600008F058FC00284AD14A4BD3F8F02042F03F
:102070001002C3F8F020D3F8F02002F01002029210
:10208000029AD3F8E02042F00102C3F8E020D3F82E
:10209000E03003F001030393039B4FF4C0633593D7
:1020A000022336930025379538950723399335A9B0
:1020B0003A4806F0BDFD3A483A4B03602923436095
:1020C0008560C5604FF48063036145618561C561CA
:1020D00005620423436203238362C562056304F03F
:1020E00039FE78B92E4BC4F880309C63002205215C
:1020F000252004F00BFC252004F018FC76E7FFF700
:10210000C4FAB1E7FFF7C1FAECE701220023CDE9F9
:10211000062306A808F0FEFB002832D11D4BD3F899
:10212000F02042F08002C3F8F020D3F8F02002F053
:1021300080020492049AD3F8E02042F01002C3F81F
:10214000E020D3F8E03003F010030593059B04234F
:10215000359302273697002437943894399335AE57
:102160000D4D3146284606F063FD0823359336971A
:10217000379438940B2339933146284606F058FD9E
:1021800034E7FFF782FAC9E7007800400010014009
:10219000001C014000440258001002580000025880
:1021A000640B00242800024008B5012210491148A0
:1021B0000CF0A4F980B910490E480CF0B6F970B9CA
:1021C0000E490C480CF059F960B90A480CF0CDF9E9
:1021D00058B907F0E7FC08BDFFF757FAEBE7FFF740
:1021E00054FAEDE7FFF751FAEFE7FFF74EFAF0E7A1
:1021F00050000024980D0024D8000024080000247A
:10220000002070470020704708B5034B1B680BB1D6
:1022100008889847002008BD7820002438B50C466F
:10222000074D014628460CF041F928460CF04AF9C2
:10223000044B1B680BB120889847002038BD00BFB5
:10224000980D00247420002410B5064C0022064985
:1022500020460CF01DF9054920460CF027F9002016
:1022600010BD00BF980D00247410002474180024C1
:1022700010B5B0B00446B822002102A80FF056FDF8
:102280002268164B9A4201D030B010BD4FF4802224
:102290000023CDE902234FF44013239302A808F052
:1022A00039FBB8B907F07EFC0D4BD3F8D82042F0CB
:1022B0000072C3F8D820D3F8D83003F0007301932C
:1022C000019B002205214D2004F020FB4D2004F04D
:1022D0002DFBD9E7FFF7D9F9E4E700BF0000044080
:1022E0000044025808B500F29C41D0F8E0040CF01C
:1022F00052F908BD08B501EBC10300EB8303D3F825
:102300006022D0F8E0040CF013FA08BD08B501EB28
:10231000C10300EB83031A6AD0F8E0040CF068FAFA
:1023200008BD08B5D0F8E0040CF0B0F908BD10B550
:102330000446C17911B1022909D10121D4F8E00480
:102340000CF087F9D4F8E0040CF051F910BDFFF758
:102350009CF90121F2E7000010B50446D0F8E00432
:102360000CF07AF92268D2F8003E43F00103C2F87B
:10237000003EE37A23B1034A136943F00603136175
:1023800010BD00BF00ED00E008B5D0F8E0040CF08F
:1023900071F908BD08B5D0F8E0040CF09DF908BD4E
:1023A00008B5D0F8E0040CF081F908BD08B5D0F804
:1023B000E0040CF0A7F908BD08B5D0F8E0040CF073
:1023C000A3F908BD0378012B01D00020704710B598
:1023D000164BC3F8E004C0F8C832154A1A60092247
:1023E0001A710221D97100229A7159729A72DA72A5
:1023F0001A739A73DA731A74184606F0A0FD90B92E
:102400000A4C4FF40071204607F087FB8022002120
:10241000204607F05CFB4FF4BA720121204607F01A
:1024200056FB002010BDFFF730F9E9E79C2200249D
:1024300000000440D0F8C83211F0800F08D101F03C
:102440007F0101EBC10103EB810393F85602704752
:1024500001F07F0101EBC10103EB8103987D70471F
:1024600008B5D0F8C80206F06DFF08BD00487047F7
:102470007C2000247047032805D8DFE800F005041D
:102480000205012070470320704708B5D0F8C80244
:1024900006F0D6FDFFF7EFFF08BD08B594461A46D3
:1024A0006346D0F8C80206F0AAFEFFF7E4FF08BDB5
:1024B00008B5D0F8C80206F0E8FEFFF7DCFF08BD5B
:1024C00008B5D0F8C80206F06BFFFFF7D4FF08BDCF
:1024D00008B5D0F8C80206F0A6FFFFF7CCFF08BD8C
:1024E00008B5D0F8C80206F077FEFFF7C4FF08BDB4
:1024F00008B5D0F8C80206F02EFFFFF7BCFF08BDF4
:1025000008B5D0F8C80206F0F8FEFFF7B4FF08BD22
:1025100012230B80004870473C00002404230B80EA
:102520000048704738000024002393421ED200B5B3
:1025300010E00CF1370C01F813C000014FEA430C16
:102540000CF1010C4FF0000E01F80CE00133DBB28E
:10255000934209D24FEA107CB0F1204FE9D20CF13E
:10256000300C01F813C0E8E75DF804FB7047000089
:1025700038B50B4BD3F80008D3F80448D3F8083823
:10258000C01800D138BD074D08222946FFF7CCFFFF
:10259000042205F110012046FFF7C6FFF2E700BF55
:1025A00000E0F11F1E00002408B51A230B80FFF77E
:1025B000DFFF014808BD00BF1C00002408B50A4623
:1025C00028B9054905480CF02BFD034808BD024910
:1025D00002480CF025FDF8E780270024408201081E
:1025E00010B50A46034C214603480CF019FD20465D
:1025F00010BD00BF802700245882010808B50A4694
:1026000028B9054905480CF00BFD034808BD0249EF
:1026100002480CF005FDF8E7802700246C820108D1
:1026200008B50A4628B9054905480CF0F9FC0348E5
:1026300008BD024902480CF0F3FCF8E780270024AB
:1026400078820108DFF838D0FFF7E4FAFFF77AFA6A
:102650000C480D490D4A002302E0D458C4500433FD
:10266000C4188C42F9D30A4A0A4C002301E01360D3
:102670000432A242FBD30FF057FCFFF780F87047FB
:102680000000052400000024F00700240C8F01083E
:10269000F0070024B4E40024FEE7034600785A78EB
:1026A00042EA002011B10A701B784B70704730EE7F
:1026B000600A31EE601AC0EE017A0B1A07EE103A8A
:1026C000B8EEC77A27EE277A07EE900AF8EEE77A97
:1026D00077EE877AFDEEE77A17EE900A7047401A98
:1026E00007EE900AB8EEE77A521A07EE902AF8EE53
:1026F000E77AC7EE276A70EEC00A60EEA60A30EEEF
:10270000800A704700000000D0B5F0EE607ADFED7F
:10271000200A30EE670A0CF01FFD10EE104A20462A
:10272000FDF752FF06460F4613A3D3E90023FEF739
:1027300033FA60B112A3D3E9002330463946FDF7DE
:10274000E3FDFEF771FA044600EE104AD0BD0EA379
:10275000D3E9002330463946FEF700FA0028F3D0CB
:1027600007A3D3E9002330463946FDF7CFFDFEF736
:102770005BFA0446E8E700BF182D4454FB210940EA
:10278000182D4454FB211940182D4454FB2109C035
:10279000DB0FC94030EE600A03E0DFED0C7A30EE6B
:1027A000670ADFED0B7AB4EEE70AF1EE10FAF4DC1B
:1027B00003E0DFED067A30EE270ADFED067AB4EEAD
:1027C000E70AF1EE10FAF4D4704700BFDB0FC940FE
:1027D000DB0F4940DB0F49C038B52DED028B10EE01
:1027E000100AFDF7F1FE9FED1E1B41EC100B0CF0E3
:1027F0007DFC51EC100BFEF717FA08EE100AFDF7FE
:10280000E3FE04460D4618A3D3E90023FEF7C4F9FE
:1028100078B113A3D3E9002320462946FDF774FDC0
:10282000FEF702FA08EE100AB0EE480ABDEC028B81
:1028300038BD0FA3D3E9002320462946FEF78EF9C1
:102840000028F1D006A3D3E9002320462946FDF74E
:102850005DFDFEF7E9F908EE100AE5E7AFF3008049
:10286000182D4454FB211940182D4454FB210940D4
:10287000182D4454FB2109C0B5EEC00AF1EE10FA40
:1028800000DD7047B1EE400AFBE780ED0A0AC0EDBB
:102890000B0A80ED0C1AC0ED0D1A80ED0E2AC0ED6A
:1028A0000F2A80ED003AC0ED013A80ED104AC0EDEC
:1028B000114A80ED125A0172C0ED035A704790ED33
:1028C000090A704780ED130A704780ED140A7047BB
:1028D000D0ED007AF4EEC07AF1EE10FA04D580ED76
:1028E000000A90ED000A7047F4EEE07AF1EE10FA7B
:1028F000F7DDC0ED000AF4E710B52DED048B0446BA
:1029000090ED138A90ED149A38EE498AB0EE480A99
:10291000FFF7B2FFD4ED017AF4EEC07AF1EE10FACF
:102920002BDD84ED139ADFED7F8AB0EE688A94ED9B
:102930000A9A29EE089AD4ED107AF5EE407AF1EE73
:1029400010FA06D194ED117AB5EE407AF1EE10FA54
:1029500039D0F4EEE87AF1EE10FA37DA29D594EDB1
:10296000117AB4EEE87AF1EE10FA22DD77EE686AB9
:1029700037EE677AC6EE879A2AE0F0EE408AB5EE27
:10298000C08AF1EE10FA07DDF4EEC07AF1EE10FA2B
:1029900002D538EE678ACAE7B5EEC08AF1EE10FAC2
:1029A000C5D5F4EEE87AF1EE10FAC0D538EE278AF4
:1029B000BDE7D4ED117AF4EEE87AF1EE10FA07D81B
:1029C000DFED589A04E0F7EE009A01E0F7EE009A86
:1029D000D4ED0E7AF5EE407AF1EE10FA64D1D4ED32
:1029E000127AF5EE407AF1EE10FA6AD1D4ED157A4A
:1029F00094ED007A27EE297A27EE087A77EE877A27
:102A0000C4ED157A94ED0B7A67EE877A237A002B62
:102A100072D1D4ED0C6A94ED087A38EE477A66EEFE
:102A2000876A94ED006A86EE867AD4ED036AF5EE45
:102A3000C06AF1EE10FA13DD94ED006A36EE866A94
:102A4000C6EE865AD4ED046A66EEA56AB7EE006A51
:102A500036EE656A26EE077A36EE877A84ED047ADA
:102A6000D4ED0D6A94ED136AD4ED065A36EE656A1C
:102A700066EE866A77EE897A77EE877A77EEA67ABF
:102A8000C4ED097AD4ED0F0AF5EE400AF1EE10FA22
:102A900041D1236D6361E36CA361636AE36184EDFB
:102AA000088ABDEC048B10BDF1EE677A94ED0B7AC9
:102AB00087EE870AF1EE400A04F15400FFF708FFA1
:102AC0008DE7F4EEE87AF1EE10FA10DDD4ED157A28
:102AD00094ED007A27EE297A27EE087A77EE877A46
:102AE000C4ED157A94ED0B7A67EE877A8EE7DFED09
:102AF0000D7AC4ED157A89E7D4ED0C6A94ED147A59
:102B000094ED056A37EE467A66EEC76A94ED006A80
:102B100086EE867A89E7B1EE600A04F12400FFF7B9
:102B2000D7FEB6E700000000F0B589B005460C46B8
:102B300017461E462022002168460FF0F7F8E308EA
:102B4000019314F0020F11D04FF080430093022341
:102B5000029314F0040F0BD10123039304970596FD
:102B60006946284605F0F6FC09B0F0BD0023EDE704
:102B70000223F2E710B504460368224A934213D0B9
:102B8000214A93421FD0214A93422BD0204605F080
:102B900026FD00220121204605F062FE00221021C0
:102BA000204605F05DFE10BD194B186059630023E7
:102BB0001A461946FFF7B8FF00231A460C21204693
:102BC000FFF7B2FFE2E7134B1860596300231A4680
:102BD0007021FFF7A9FF00231A467C212046FFF74A
:102BE000A3FFD3E70C4B1860596300231A46E0217A
:102BF000FFF79AFF00231A46EC212046FFF794FFC7
:102C0000C4E700BF00A0004000A4004000D4004082
:102C1000202A0024E8290024B029002400B58BB024
:102C2000019100210291039104930591069107916E
:102C30000891099101A905F0EBFC0BB05DF804FBCC
:102C400011F0010F2FD038B50368174A934206D010
:102C5000164A93420FD0164A934218D038BD154CED
:102C6000A4F1280523462A46402105F00BFDA36860
:102C700028469847F2E7104CA4F1280523462A4637
:102C8000402105F0FFFCA36828469847E6E70B4C77
:102C9000A4F1280523462A46402105F0F3FCA36849
:102CA00028469847DAE7704700A0004000A400409B
:102CB00000D400404C2A0024142A0024DC290024DB
:102CC00011F0100F2FD038B50368174A934206D081
:102CD000164A93420FD0164A934218D038BD154C6D
:102CE000A4F1280523462A46412105F0CBFCA36820
:102CF00028469847F2E7104CA4F1280523462A46B7
:102D0000412105F0BFFCA36828469847E6E70B4C35
:102D1000A4F1280523462A46412105F0B3FCA36807
:102D200028469847DAE7704700A0004000A400401A
:102D300000D400404C2A0024142A0024DC2900245A
:102D400010B504460368484A934223D0474A934249
:102D50002FD0474A93423BD0464A934247D0464AF7
:102D6000934253D0454A93425FD0454A93426BD039
:102D7000444A93421CD1444BD3F808340BB1434826
:102D800098474149B1F8042401F5017120460AF041
:102D90006DFB0DE03E4BD3F808340BB13D4898472E
:102DA0003B49B1F8042401F5017120460AF05EFBAD
:102DB00010BD394BD3F808340BB138489847364921
:102DC000B1F8042401F5017120460AF04FFBEFE74A
:102DD000334BD3F808340BB1324898473049B1F837
:102DE000042401F5017120460AF040FBE0E72E4B78
:102DF000D3F808340BB12D4898472B49B1F8042477
:102E000001F5017120460AF031FBD1E7284BD3F8D8
:102E100008340BB1274898472549B1F8042401F537
:102E2000017120460AF022FBC2E7234BD3F8083495
:102E30000BB1224898472049B1F8042401F50171EB
:102E400020460AF013FBB3E71D4BD3F808340BB14F
:102E50001C4898471A49B1F8042401F5017120462D
:102E60000AF004FBA4E700BF00100140004400404A
:102E700000480040004C0040005000400014014059
:102E800000780040007C0040582A00245C2C00247C
:102E9000AC460024B0480024A0420024A4440024EE
:102EA000943E002498400024883A00248C3C00245E
:102EB0007C360024803800247032002474340024CE
:102EC000642E00246830002408B503682C4A93421D
:102ED00015D02C4A93421AD02B4A93421FD02B4A2A
:102EE000934224D02A4A934229D02A4A93422ED090
:102EF000294A934233D0294A934238D008BD284901
:102F0000B1F8042401F501710AF0B0FAF6E7254999
:102F1000B1F8042401F501710AF0A8FAEEE722499C
:102F2000B1F8042401F501710AF0A0FAE6E71F499F
:102F3000B1F8042401F501710AF098FADEE71C49A2
:102F4000B1F8042401F501710AF090FAD6E71949A5
:102F5000B1F8042401F501710AF088FACEE71649A8
:102F6000B1F8042401F501710AF080FAC6E71349AB
:102F7000B1F8042401F501710AF078FABEE700BF48
:102F8000001001400044004000480040004C004058
:102F9000005000400014014000780040007C0040D8
:102FA000AC460024A0420024943E0024883A002429
:102FB0007C36002470320024642E0024582A002419
:102FC00010B40968094CA14209D0094CA14209D0AA
:102FD000A0F87020A0F872305DF8044B70470549E6
:102FE000C166F5E70449C166F2E700BF00A00040F2
:102FF00000A40040202A0024E829002470B50546DA
:10300000037A314C2370C3686370C3F30722A27044
:10301000C3F30742E270C3F30763237100266671AE
:10302000A671E671C06E08232246B5F872100068DA
:10303000FFF7F4FD2B7C23706B696370C3F30722E9
:10304000A270C3F30742E270C3F307632371667192
:10305000A671E671E86E08232246B5F87210006882
:10306000FFF7DCFD2B7E2370EB696370C3F307224F
:10307000A270C3F30742E270C3F307632371667162
:10308000A671E671E86E08232246B5F87210006852
:10309000FFF7C4FD95F8203023706B6A6370C3F3AB
:1030A0000722A270C3F30742E270C3F307632371E0
:1030B0006671A671E671E86E08232246B5F87210B3
:1030C0000068FFF7ABFD70BDB84A00240B78FA2BFF
:1030D00007D3FA3B052B63D8DFE803F0282C303404
:1030E000383CAE2B3AD0AF2B4AD0AB2B14D1037067
:1030F0004B7843708B788370CB78C3700B790371F6
:103100004B7943718B79012B07D0022B08D053B92F
:103110008371CB79C3717047704701238371F8E7DE
:1031200002238371F5E701238371F2E7D1F80130BF
:10313000C3627047D1F8013043637047D1F8013062
:10314000C3637047D1F8013043647047D1F8013050
:10315000C3647047D1F801304365704780F8583038
:103160004B7880F85A308B7880F85B30CB7880F8D9
:103170005C300B7980F85D30D0F85A3003667047C8
:1031800080F859304B7880F864308B7880F865305F
:10319000CB7880F866300B7980F86730436E8366B1
:1031A000704760EE027A67EEA27A62EEA00A60EEE5
:1031B000A22A77EEA27A22EE011A21EE022A77EEF7
:1031C000827A37EEA10A704710B4344B984206D089
:1031D000334B984230D020465DF8044B704701399C
:1031E0000A29F8D8DFE801F05506080A0C1014186F
:1031F0001C2024002B4CEEE72B4CECE72B4CEAE791
:10320000002AE8D12A4CE6E7002AE4D1294CE2E77B
:10321000002AE0D1284CDEE7002ADCD1274CDAE78F
:10322000002AD8D1264CD6E7002AD4D1254CD2E7A3
:10323000002AD0D1244CCEE701390A29CBD8DFE8C7
:1032400001F02A06080A0C1014181C2024001F4C38
:10325000C1E71F4CBFE71F4CBDE7002ABBD11E4C86
:10326000B9E7002AB7D11D4CB5E7002AB3D11C4CF1
:10327000B1E7002AAFD11B4CADE7002AABD11A4C05
:10328000A9E7002AA7D1194CA5E7002AA3D1184C19
:10329000A1E7184C9FE7184C9DE700BF5009002498
:1032A000B0080024A2290024A4290024A62900246F
:1032B000A8290024AA290024AC290024AE2900242E
:1032C000982900249A2900249C2900248A29002472
:1032D0008C2900248E29002490290024922900247E
:1032E000942900249629002480290024822900247E
:1032F00084290024A02900248829002438B5044604
:10330000084611460268104DAA4214D00F4DAA4239
:1033100015D084F8B41084F818319DF8103084F872
:10332000C03084ED2F0AC4ED310A0022FFF74CFFB4
:10333000C4F8B80038BD064AC4F8B020E9E7054A29
:10334000C4F8B020E5E700BF00A0004000A40040A2
:10335000202A0024E829002470B582B00446D0F861
:10336000B0500DF1060105F12C00FFF796F901A907
:1033700005F12E00FFF791F90DF1020105F1300082
:10338000FFF78BF9BDF80660D4F80831F31A1BB2C9
:10339000B4F8D820511049428B4258DAD4F8103191
:1033A0000133C4F81031D4F8103103FB0263C4F8C0
:1033B0000C3107EE903AB8EEE77A07EE902AF8EE75
:1033C000676AC7EE267A77EEA77A9FED257A67EED1
:1033D000877A94ED2F7AC7EE876AC4ED3D6ABDF90E
:1033E000043007EE903AF8EEE77ADFED1E6A67EEFA
:1033F000A67AC7EE872AC4ED3E2AD4ED376ABDF916
:10340000023007EE903AF8EEE77A87EEA62A84EDCE
:103410003F2A95F8323007EE903AF8EEE77ADFED82
:10342000126A77EEA67AC4ED407A67EE222AD4EDCE
:10343000351A94ED341AD4ED330A94ED320AFFF7BD
:10344000B0FE84ED410AC4F8086102B070BDB3EB70
:10345000520FA8DDD4F81031013BC4F81031A2E7B7
:10346000DB0F49405077D63D3393884308B5D0F8F9
:10347000E4200132C0F8E420FFF76EFF08BD38B544
:10348000044690F81831032B07D0042B1ED0012BD3
:103490001BD00023C0F8243117E000F1580590ED4F
:1034A000480AD0ED4A7A30EE270A2846FFF70AFA92
:1034B00094ED3E0A2846FFF708FA2846FFF71CFA63
:1034C0002846FFF7FCF984ED490A38BD90ED470A1C
:1034D000FFF7F8F994ED3D0A2046FFF7F6F920468C
:1034E000FFF70AFA2046FFF7EAF984ED480A04F1EB
:1034F0005805D4ED4A7A37EE800A2846FFF7E2F9FC
:1035000094ED3E0A2846FFF7E0F92846FFF7F4F964
:103510002846FFF7D4F984ED490AD6E7D0ED3B7A87
:10352000FDEEE77A17EE903A43F30723D0F8B82080
:103530001370D0ED3B7AFDEEE77A17EE903AD0F8B3
:10354000B8205370704710B582B00446FFF797FF5C
:10355000D4ED497A94ED4B7A77EE877ACDED017A06
:10356000D4ED310AB1EE600A01A8FFF7B1F9D4ED4C
:10357000377A9DED017A67EE877AC4ED3B7AD4ED18
:103580003E2AD4ED2F7AC2EEA72A94ED492AD4ED33
:10359000351A94ED341AD4ED330A94ED320AFFF75C
:1035A00000FE84ED450A2046FFF7B8FF94F8C030CE
:1035B00023B90023C4F82C31C4F8283102B010BD5F
:1035C00010B49DF804C00968194CA1420DD0194CE3
:1035D000A1420DD0184CA1420DD08280BCF1030F46
:1035E0000DD8DFE80CF00B191D2114490160F4E738
:1035F00013490160F1E713490160EEE7C38080F8E9
:1036000054C080ED020AC0ED030A80ED041AC0ED3B
:10361000051A5DF8044B704703F58073C380EEE72D
:1036200003F50073C380EAE703F54073C380E6E760
:1036300000A0004000A4004000D40040202A002444
:10364000E8290024B029002410B504680823034A9F
:10365000C1882068FFF7E2FA10BD00BF8000002497
:1036600010B504680823034AC1882068FFF7D6FA1A
:1036700010BD00BF7800002410B504680823034A79
:10368000C1882068FFF7CAFA10BD00BF700000248F
:1036900070B52DED028B82B0056895F82C2002F0F4
:1036A0000F02C38803F00F039A4203D002B0BDECAF
:1036B000028B70BD04460DF1060105F12D00FEF7E9
:1036C000ECFF95F82F0095F83030000140EA131018
:1036D0001E0206F4706695F831301E4395F82C30C2
:1036E000C3F3031384F82C30BDF80620636CD31A9F
:1036F00013F5004F5BDAE36C0133E364E36C02EB38
:1037000003412E4B0B44A36407EE902AF8EEE77AB0
:10371000DFED2B6A87EEA67AD4ED027A37EEA76A40
:1037200027EE067A37EE677A84ED147A07EE103AC0
:10373000B8EEC77A87EE266A67EE867A77EEA77AC2
:10374000C4ED0C7A9FED1F8AD4ED030AB0EE480A4F
:1037500040F6FF7240F2FF71FEF7C1FF84ED0D0AE3
:10376000D4ED040AB0EE480A40F6FF7240F2FF7151
:103770003046FEF7B4FF84ED0E0A95F8323007EEBE
:10378000903AF8EEE77A9FED107A77EE877AC4EDFB
:103790000F7A95F8333007EE903AF8EEE77A77EE45
:1037A000877AC4ED107ABDF8063063647EE7B3F51E
:1037B000004FA3DDE36C013BE3649FE70180FFFF63
:1037C00000FF7F47000000003393884308B58269FB
:1037D00001328261FFF75CFF08BD00002DE9F04F68
:1037E0002DED028B85B0044690F85430032B72D82F
:1037F000DFE803F00276838E9FED588A4FF6FF7163
:1038000047F6FF7094ED021AF0EE480A94ED160A9E
:10381000FEF74DFFADF80E0040F6FF7140F2FF706D
:1038200094ED031AF0EE480A94ED170AFEF73FFFF5
:1038300006461FFA80F940F6FF7140F2FF7094EDE2
:10384000041AF0EE480A94ED180AFEF730FF0190D2
:10385000BDF804A040F6FF7100209FED411AF0EE84
:10386000480A94ED1A0AFEF722FF07461FFA80FB6A
:1038700040F6FF710020B1EE041AF0EE480A94ED14
:103880001B0AFEF714FF05461FFA80F800210DF110
:103890000E00FEF702FF20844FEA191984F82290E7
:1038A000360146EA1B2684F8236084F824704FEA28
:1038B000181884F825802D0145EA1A2584F8265029
:1038C000019B84F82730224652F8200B0823E18818
:1038D0000068FFF7A3F905B0BDEC028BBDE8F08FDF
:1038E000836D0362C36D4362024652F8200B0823C6
:1038F000E1880068FFF792F9EDE7C36D03620246C5
:1039000052F8200B0423E1880068FFF787F9E2E70B
:10391000836D0362D0ED177A9FED127A67EE877A96
:10392000FCEEE77A17EE903A8384D0ED196A90EDB9
:10393000057AC6EE877A9FED0C7A67EE877AFCEE01
:10394000E77A17EE903AC384024652F8200B082318
:10395000E1880068FFF762F9BDE700BF00000000E2
:103960000000FA430000C84200401C4610B5096838
:10397000104CA14214D0104CA14214D00F4CA142C3
:1039800014D08280C38037230377322380F821301C
:10399000012303760A4A01460A4801F0C1F810BD26
:1039A00009490160EDE709490160EAE7084901605A
:1039B000E7E700BF00A0004000A4004000D40040A2
:1039C00004850108573A0008202A0024E829002429
:1039D000B0290024036893F82C20027293F82D205C
:1039E000427293F82E20827293F82F20C27293F8BD
:1039F00030300373704708B5026901320261FFF786
:103A0000E9FF08BD10B582B0037E8DF80030837EDB
:103A10008DF80130037F8DF80230437F8DF803303D
:103A200000238DF804308DF805308DF806308DF8C0
:103A30000730046808236A46C1882068FFF7EEF85B
:103A400002B010BD10B504462046FFF7DBFF0A2088
:103A500001F0C0F8F8E708B5FFF7F4FF0E4B1B784C
:103A6000C3B982B00C4B01221A700C4B5B680193F6
:103A7000019A0B4B1B689A4203D20A4A136801331E
:103A80001360064B5A68064B1A60034B00221A70EB
:103A900002B07047704700BFC04A0024001000E029
:103AA000D04A0024D44A002408B5124AD2F8FC3087
:103AB00043F08073C2F8FC300F4B002159601A6844
:103AC00042F001021A600D4B03FB00F00C4B186032
:103AD0000C4BA3FB00239B090B4A13600B4BA3FB6E
:103AE0000030800C0A4B18600A4B1960FFF7B6FFD4
:103AF00008BD00BF00ED00E0001000E040420F00F4
:103B0000E04A0024D34D6210DC4A002483DE1B43CC
:103B1000D84A0024D44A00242DE9F04383B0244B32
:103B20005B680193FFF79AFF224B1C68002665082B
:103B3000E3071B1B65F10005DB186D411C1945F1FE
:103B40000005019BE41845F100051B4B1C605D60FE
:103B50001A4B1F683A46334620462946FDF7B4F80B
:103B600081463A46334620462946FDF7ADF81046D1
:103B70001D461746DFF85080C8F80090104B1C68AF
:103B8000224633462946FDF79FF880B2A8F8040084
:103B900000FB04F4381B0B4B1A68334665F1000137
:103BA000FDF792F8A8F8060003B0BDE8F08300BF67
:103BB000001000E0D44A0024C84A0024E04A00244F
:103BC000DC4A0024D84A0024E44A002408B5FFF760
:103BD000A3FF074A116893884FF47A7000FB03F340
:103BE000044800FB0133D0881844002108BD00BF01
:103BF000E44A002440420F0008B5002300E00133EE
:103C0000074A12789A420AD9064A52F82320D188E4
:103C10008142F4D191680029F1D01046884708BD4F
:103C2000144B0024EC4A002408B5002301E00133C2
:103C3000DBB20C4A12789A4213D90B4A52F823206D
:103C400011688142F3D190F81CE051684FEA910C61
:103C5000012101FA0CF18E45E9D153690BB11046EF
:103C6000984708BD584B0024184B002408B503683A
:103C7000A3F20123032B08D8DFE803F002080E1497
:103C800000F128010A48FFF7F1FB08BD00F1280107
:103C90000848FFF7EBFBF8E700F128010648FFF7BB
:103CA000E5FBF2E700F128010448FFF7DFFBECE752
:103CB000344C0024684D00249C4E0024D04F002436
:103CC00008B50368012B00D008BD00F128010248A7
:103CD000FFF7FCF9F8E700BF604B002408B5036864
:103CE000122B0AD0B3F5807F0DD0112B0AD100F131
:103CF00028010848FFF76AFD04E000F128010648A2
:103D0000FFF764FD08BD00F128010448FFF773FECA
:103D1000F8E700BFAC5100243C5100240C540024AF
:103D200030B50546174C94E8030085E8030005F11B
:103D3000080C04F1080EBEE80F00ACE80F009EE886
:103D40000F008CE80F0005F1280E04F1280CBCE8E8
:103D50000F00AEE80F00BCE80F00AEE80F009CE8D3
:103D60000F008EE80F000023AB65EB652B666B66DA
:103D7000AB66AE2385F85830AF2385F85930284616
:103D800030BD00BF70810108002242618261C261C2
:103D9000026242628262C262026342638263C263FF
:103DA000026442648264C264026542657047000036
:103DB00010B50446FFF7E8FF04F15800FFF7E4FFF1
:103DC000194BC4F8C830194BC4F8CC30184BC4F8A0
:103DD000D030184BC4F8D4304FF40053A4F8D83086
:103DE000154BC4F8DC30154BC4F8E0300022C4F8A1
:103DF000E420C4F8E8200023C4F8EC3084F8F02074
:103E0000042284F81821C4F81C31C4F82031C4F805
:103E10002431C4F82831C4F82C314FF07E53C4F853
:103E20003031204610BD00BF75A58C3C9427353835
:103E3000D9EC023ED6A0CC3FCDCC4C440000A041F2
:103E400010B50446FFF7B4FF04F59A70FFF7B0FF12
:103E500004F51A70FFF7ACFF04F56770FFF7A8FFD1
:103E600004F2D4420023136004F59B62136004F251
:103E7000DC42136004F59C62136004F2E4421360B8
:103E800004F59D621360204610BD000070B5044625
:103E900000268661C66180F8286080F8546000259D
:103EA0008565C565056645668566C566C0F8886032
:103EB000C0F88C6080F8986080F8C460C0F8C85082
:103EC000C0F8CC50C0F8D050C0F8D450C0F8D8508A
:103ED000C0F8DC50022380F8F030F430FFF754FFD4
:103EE00004F5A670FFF750FF04F5D270FFF74CFF02
:103EF00004F5FE70FFF748FF1C4BC4F870324FF01A
:103F00007C53C4F87432C4F87852C4F87C52C4F8B4
:103F10008052C4F88452C4F88852C4F88C52C4F851
:103F2000905284F89462032384F8953284F8963290
:103F3000C4F89852C4F89C52C4F8A052C4F8A452D1
:103F4000C4F8A852C4F8AC52C4F8B052C4F8B45281
:103F5000C4F8B852C4F8BC52C4F8C052C4F8C45231
:103F6000C4F8C852C4F8CC52204670BD9A9999BE84
:103F7000002202604FF4807181800321C180826041
:103F80000273026142610276427601218176C27635
:103F9000027742778277C27780F82020962280F8D5
:103FA0002120704770B504460430FFF7B9FE04F1D4
:103FB0008000FFF7E9FE04F1D800FFF741FF04F2AB
:103FC000C45300261E60012584F8DC5504F5BC604E
:103FD000FFF75CFF04F50B60FFF7CAFF04F6D80398
:103FE0001E6004F6DC031E60002384F8E03884F8C9
:103FF000E158C4F8E458204670BD000008B50248F6
:10400000FFF7D0FF08BD00BF5C4B002408B508498E
:104010000848FEF7AFFD08490848FEF7ABFD084920
:104020000848FEF7A7FD084800F014F808BD00BFD7
:104030006D3C000850090024C13C0008B008002471
:10404000DD3C0008100800245C4B002408B5FFF795
:10405000D5FF08BD10B52DED028B04464FF4F0706E
:10406000FFF722FD002301222349201DFEF7A8FFB0
:1040700042F2107000F0AEFD9FED208AF0EE485A3B
:104080000021B0EE485AF0EE484AB0EE484AF0EE51
:10409000483A9FED1B3AF1EE082AB0EE482AF1EEBD
:1040A000041AB0EE481AF0EE480AB3EE010A04F121
:1040B0008000FEF7EAFB04F5BC6000F0D5FA04F1DD
:1040C000D80000F05FF903234FF480720D4904F526
:1040D0000B60FFF74BFC04F6D80383ED008A04F66F
:1040E000DC0383ED008A084A2146084800F018FDE9
:1040F000BDEC028B10BD00BFB00800240000000022
:104100006F12833A10080024288501087D430008B7
:1041100030B52DED028B85B004467F238DF8093034
:104120008DF80A308DF80B308DF80C308DF80D308D
:1041300001228DF80E2000258DF80F508DF80130EA
:104140008DF802308DF803308DF804308DF805308D
:104150008DF806208DF8075042E0DFED7E6AF4EE20
:10416000E67AF1EE10FA7ED804F6DC03C3ED006ABD
:1041700079E004F2BC53784A1A60022384F8753857
:1041800004F5BC63754AC3F8B022DFED757A28EEFA
:10419000278A83EDA88A04F5BC63D3EDB07AF1EEEB
:1041A000677AC4ED047A00232362201DFEF726FF00
:1041B0009DF80F30002B40F0C280012384F8CA38EC
:1041C000642384F8CC38322384F8CD38FFF7FEFC22
:1041D00004AA12E90300CDE90001012000F0FAFC75
:1041E000FFF7F4FC00F0CEFD231D93E8030004ABC1
:1041F00003E9030000F0E8FD2DB904AA12E9030069
:10420000CDE90001012504F6D80393ED007A9DF86D
:10421000092008EE102AB8EEC88ADFED526A38EE9F
:10422000668ADFED517A68EE277A37EE277A83EDDA
:10423000007A9DF80A3007EE903AF8EEE77A77EECA
:10424000E67ADFED4A6A67EEA67A04F6DC03C3ED90
:10425000007ADFED476AF4EEE67AF1EE10FAFFF647
:104260007CAFC3ED006A04F5BC6383EDB27A04F65B
:10427000DC021268C3F8CC229DF80B2007EE102A4E
:10428000B8EEC77ADFED377A37EE677AB2EE0E6AAC
:1042900027EE067ADFED376A27EE267A04F2AC5273
:1042A00082ED007A9DF80C2007EE102AB8EEC77A4E
:1042B00037EEC77A27EE067A27EE267A04F5B6623D
:1042C00082ED007A9DF80D2007EE102AB8EEC77A2D
:1042D00077EEC77A67EE867A67EEA67A04F2BC526A
:1042E000C2ED007A93ED9F0ADFED237A80EE270A74
:1042F000FEF772FAB1EE400A04F5B86383ED000AE6
:104300009DF80E30012B05D0022B0FD0002B7FF42F
:1043100042AF2EE704F2BC5300221A60032384F854
:10432000753804F5BC63C3F8B02234E704F1D80053
:1043300000F0F6F804F5BC6000F0B0FA2BE7012BB2
:1043400003D0012384F8CA383AE7002384F8CA3836
:1043500036E700BF9A9999BE0000F0419A99314121
:10436000CDCC4C3D0000FE4217B7D1389A99193B8D
:104370009A99993E0000003CCDCC4C3F08B5FFF720
:10438000C7FE000070B52DED028B82B004469FED94
:104390005E8ADFED5E8AF0EE485A0021B0EE485AA0
:1043A000F0EE484AB0EE484AF0EE483AB0EE683ACD
:1043B000F0EE482AB0EE482AF0EE481AB0EE481A5D
:1043C000F0EE480AB7EE000A5830FEF75EFAF0EE5B
:1043D000485A0021B0EE485AF0EE484AB0EE484A3A
:1043E000F0EE483AB0EE683AF0EE482AB0EE482ACD
:1043F000F0EE481AB0EE481AF0EE480AB7EE000A9E
:1044000004F5C670FEF741FAF0EE485A0021B0EE0E
:10441000485AF0EE484AB0EE484AF0EE483AB0EE5C
:10442000683AF0EE482AB0EE482AF0EE481AB0EEAC
:10443000481AF0EE480AB7EE000A04F53070FEF7AD
:1044400024FAF0EE485A0021B0EE485AF0EE484AFD
:10445000B0EE484AF0EE483AB0EE683AF0EE482A3C
:10446000B0EE482AF0EE481AB0EE481AF0EE480ACC
:10447000B7EE000A04F57D70FEF707FADFED248A37
:10448000244D00260096F3EE040AB0EE680A0323DA
:10449000012229462046FEF731FF0096F3EE040A7A
:1044A000B0EE680A03230222294604F59A70FEF74B
:1044B00025FF0096F3EE040AB0EE680A03231A46BD
:1044C000294604F51A70FEF719FF0096F3EE040A68
:1044D000B0EE680A03230422294604F56770FEF74C
:1044E0000DFF84ED488A84ED958A84EDE28A04F21A
:1044F000BC4383ED008A084A2146084800F010FBBF
:1045000002B0BDEC028B70BD000000006F12833A58
:104510003C3C7C41500900244C850108634600085E
:104520000023C0F82031C0F85432C0F8883300F2BC
:10453000BC400360704710B52DED048B044600F5B8
:104540009D63D3ED009AB0EE690A0AF029FEF0EE01
:10455000408A04F2D44393ED008A20EE089AB0EE2C
:10456000690A0AF05DFE04F59B63D3ED007A20EE44
:10457000277A39EE479A04F2DC4383ED009A28EE5D
:10458000008A68EEA78A38EE288A04F59C6484EDD8
:10459000008ABDEC048B10BD00F2DC4393ED007A81
:1045A000DFED167A27EE277A00F59C63D3ED007ACB
:1045B000DFED136A67EEA67A77EE276A00F2E4432E
:1045C00093ED006A76EE866AC0ED486A77EE676A18
:1045D00076EE266AC0ED956AF1EE476A76EEE76AF6
:1045E00076EE266AC0EDE26A77EEC77A77EE867AD3
:1045F00000F2BC40C0ED007A704700BFF70435BF41
:10460000F704353F10B50446FEF79DFF04F59A7098
:10461000FEF799FF04F51A70FEF795FF04F5677031
:10462000FEF791FF0823034A4FF400710248FEF79A
:10463000F5FA10BDA02900245009002410B5044645
:10464000FFF7C4FA2046FFF776FF2046FFF7A4FFE6
:104650002046FFF7D7FFFFF7B9FA012000F0BAFABA
:10466000EEE708B5FFF7EAFFF0B52DED088B83B054
:104670000446DFED768A9FED768A764F0025009519
:10468000F0EE681AB2EE041AF0EE480A9FED720AD4
:10469000012312223946FEF793FF04F170060095BC
:1046A000F0EE681AB2EE041AF0EE480AB2EE090A09
:1046B0000223112239463046FEF782FF9FED679AAA
:1046C0009FED678ADFED678ADFED679AF0EE495A62
:1046D0002946B0EE485AF0EE484AB0EE484AF0EEAD
:1046E000483AB0EE683AF0EE692AB0EE482AF0EEA9
:1046F000481AB2EE0E1AF1EE040A9FED5C0A04F1BC
:10470000F400FEF7C2F8DFED5A5A2946B0EE485AD7
:10471000F0EE484AB0EE484AF0EE483AB0EE683A59
:10472000F0EE692AB0EE482AF0EE481AB3EE041A09
:10473000F0EE410A9FED4F0A04F5A670FEF7A5F8CA
:104740009FED4DBADFED4DAA9FED4DAADFED4D9ADD
:10475000F0EE495A2946B0EE485AF0EE484AB0EE1B
:10476000484AF0EE483AB0EE683AF0EE4B2AB0EE26
:10477000082AF0EE6A1A9FED441AF0EE4A0AB0EEEB
:10478000690A04F5D270FEF780F8F0EE495A29461E
:10479000B0EE485AF0EE484AB0EE484AF0EE483AD9
:1047A000B0EE683AF0EE4B2AB0EE082AF0EE6A1A44
:1047B0009FED361AF0EE4A0AB0EE690A04F5FE7073
:1047C000FEF763F8324AC4F8542284ED968A012336
:1047D00084F85C32C4F8602284ED998A84F86832E7
:1047E0002046FEF731FF3046FEF72EFF642000F032
:1047F000F1F92046FEF734FF3046FEF731FF4FF463
:104800007A7000F0E7F984ED1A8A84ED368A84ED37
:104810001B8A84ED378A84ED168A84ED328A84ED12
:10482000178A84ED338A84ED188A84ED348A204611
:10483000FEF7D4FF3046FEF7D1FF164A2146164850
:1048400000F06EF903B0BDEC088BF0BDDA2D244109
:104850000000344210080024D00F49400AD7233CFE
:10486000000000006F12833A000030420000C8428E
:104870000AD7A33C0000AF4366661E41CDCCCC3DB9
:104880006F12033C8FC2753DCDAFE6380F7EE23824
:104890000865B03D70850108A74A000810B50446B8
:1048A000FEF7EAFE04F17000FEF7E6FE10BD000020
:1048B00038B52DED028B0446D0F8A030C0F8803218
:1048C00090ED0C0A80ED9F0A5A4B1B78002B40F0AC
:1048D0009980584B01221A7080EDAF0A0023C0F86E
:1048E000B832236DC4F8C032D4F8C030C4F8C43232
:1048F000D4F8A430C4F88832636BC4F88432D4F896
:10490000A830C4F89032A36BC4F88C3204F1F405DB
:104910009FED490A2846FDF7D5FF94EDB28A94ED44
:104920009F0ADFED467A80EE270AFDF755FFF0EE8D
:10493000400AB0EE480AFDF72DFF2846FDF7C5FFF7
:104940002846FDF7D9FF94F89532032B61D0022B4E
:1049500067D004F5D27594EDA80A2846FDF7B2FF9A
:1049600094EDA10A94F85C327BB194ED957A27EE30
:10497000000AF7EE007A77EEC77A94ED967A67EE42
:10498000877A30EE270A84ED960A2846FDF79DFFC8
:104990002846FDF7B1FF04F5A67594EDB30A284645
:1049A000FDF790FF94EDB10A2846FDF78EFF2846EB
:1049B000FDF7A2FF2846FDF782FF84EDA90A04F562
:1049C000FE752846FDF77EFF94EDA20A94F8683242
:1049D0007BB1D4ED987A27EE800AB7EE007A37EEF5
:1049E000677AD4ED997A67EE877A30EE270A84EDFC
:1049F000990A2846FDF769FF2846FDF77DFFBDECC3
:104A0000028B38BDD0EDAF0AFDF77EFE84EDAE0A15
:104A100067E72846FDF753FFB1EE400A84EDA80A88
:104A200097E7D4EDA87A94EDAC7A77EE877AC4ED67
:104A3000A87A8EE74454002400000000CDCC4C3FFF
:104A400010B5044600F5D270FDF739FF84ED180A61
:104A500004F5FE70FDF733FF84ED340A2046FEF7BF
:104A6000BDFE04F17000FEF7B9FE10BD38B5044676
:104A7000002513E0D4F89C32C4F878320125204692
:104A8000FFF716FF2046FFF7DBFFD4F89C32C4F88F
:104A90007832FFF79BF8012000F09CF8FFF796F8BA
:104AA000002DE7D0EBE708B5FFF7E0FF08B54FF0C2
:104AB000E0231B6901F0F2FB012800D108BD00F0E2
:104AC000D1F9FBE7EFF305832BB9064B186828B93A
:104AD00001221A6070476FF0050070474FF0FF30F9
:104AE000704700BF005B0024EFF3058373B90A4BE6
:104AF0001B68012B0DD110B50024084BDC77064B49
:104B000002221A6001F00CF9204610BD6FF005007A
:104B100070474FF0FF307047005B002400ED00E06D
:104B2000F0B587B000240594EFF3058404BBF8B119
:104B3000002A34D0156893692BB11E46013B372BF0
:104B400002D9002015E01826536813F0010F3FD159
:104B5000546984B14FEA940C93682BB1D7685B2FEA
:104B600002D9176907B184B943B14FF0FF330BB3D2
:104B7000059807B0F0BD4FF0800CEDE7D368A3B9FE
:104B80001369ABB14FF0FF33F1E702930197009641
:104B90000B466246294601F055F80590E8E71546B0
:104BA000002318264FF0800CE1E74FF0FF33DEE7DB
:104BB0000023DCE705AB019300960B461FFA8CF24D
:104BC000294601F07AF80128D2D000230593CFE7D7
:104BD0000020CEE708B5EFF3058333B908B900200C
:104BE00008BD01F0FFF90020FAE76FF00500F7E7D4
:104BF000034B0360034B0B6080231360704700BFBF
:104C0000A45A0024A4580024034B0360034B0B60F8
:104C10004FF48073136070474858002448540024B0
:104C200000F1080343604FF0FF328260C36003610C
:104C300000230360704700230361704743684B60A3
:104C40009A688A6051609960086103680133036063
:104C5000704730B40D68B5F1FF3F11D000F1080383
:104C60001C465B681A68AA42FAD963684B6099606F
:104C70008C606160086103680133036030BC704779
:104C80000469F2E70369416882688A60416851609B
:104C90005A68824206D0002202611A68013A1A60FC
:104CA0001868704782685A60F5E7000082B00023F8
:104CB00001930D4B1B68B3F1FF3F08D04FF0500339
:104CC00083F31188BFF36F8FBFF34F8FFEE74FF071
:104CD000500383F31188BFF36F8FBFF34F8F019B96
:104CE000002BFCD002B07047880000240848006800
:104CF000006880F308884FF0000080F3148862B6E3
:104D000061B6BFF34F8FBFF36F8F00DF00BF0000AE
:104D100008ED00E0DFF80C00016841F4700101606B
:104D20007047000088ED00E04FF0807340F8043CCD
:104D300021F0010140F8081C054B40F80C3C40F8FC
:104D4000202C6FF0020340F8243C4438704700BF29
:104D5000AD4C000800000000000000000000000052
:104D6000074B19680868B0E8F04F80F30988BFF373
:104D70006F8F4FF0000080F311887047AFF3008011
:104D800068E000244FF0500383F31188BFF36F8F66
:104D9000BFF34F8F0B4A136801331360012B00D010
:104DA00070474FF0E023D3F8043D13F0FF0FF7D026
:104DB0004FF0500383F31188BFF36F8FBFF34F8F12
:104DC000FEE700BF88000024094B1B6843B94FF081
:104DD000500383F31188BFF36F8FBFF34F8FFEE74C
:104DE000013B034A13600BB983F31188704700BF7E
:104DF0008800002400000000000000000000000007
:104E0000EFF30980BFF36F8F154B1A681EF0100F78
:104E100008BF20ED108A20E9F04F10602DE909004D
:104E20004FF0500080F31188BFF34F8FBFF36F8FA7
:104E300001F0FEF84FF0000080F3118809BC1968FA
:104E40000868B0E8F04F1EF0100F08BFB0EC108AF1
:104E500080F30988BFF36F8F704700BFAFF3008006
:104E600068E0002408B54FF0500383F31188BFF3C6
:104E70006F8FBFF34F8F00F0ADFF28B14FF0E023ED
:104E80004FF08052C3F8042D002383F3118808BD2E
:104E90004FF0E022002313619361054B1B68054925
:104EA000A1FB03139B09013B536107231361704767
:104EB00004000024D34D62104FF0E023D3F8002DFE
:104EC0003D4B9A421CD04FF0E023D3F8002D3B4BD2
:104ED0009A421ED030B583B0394B1A78D2B20192C3
:104EE000FF221A701B78DBB28DF803309DF8033077
:104EF00003F05003334A1370334B07221A601BE050
:104F00004FF0500383F31188BFF36F8FBFF34F8FC0
:104F1000FEE74FF0500383F31188BFF36F8FBFF3A9
:104F20004F8FFEE7284A1368013B13609DF803305A
:104F30005B00DBB28DF803309DF8033013F0800F77
:104F4000F0D1214B1B68032B08D04FF0500383F3A3
:104F50001188BFF36F8FBFF34F8FFEE71B021A4A12
:104F6000136003F4E0631360019BDBB2144A137017
:104F70004FF0E024D4F8203D43F47003C4F8203D02
:104F8000D4F8203D43F07043C4F8203DFFF780FF84
:104F900000250E4B1D60FFF7BDFED4F8343F43F0F3
:104FA0004043C4F8343FFFF7A1FE01F041F8FFF79A
:104FB0007DFE284603B030BD71C20F4170C20F4163
:104FC00000E400E0085B0024045B00248800002467
:104FD000EFF305830F2B0ED9114A9A5C114B1B7806
:104FE0009A4208D24FF0500383F31188BFF36F8FBA
:104FF000BFF34F8FFEE74FF0E023D3F80C3D03F4EF
:10500000E063094A1268934208D94FF0500383F3D2
:105010001188BFF36F8FBFF34F8FFEE7704700BF5C
:10502000F0E300E0085B0024045B0024124A12F065
:10503000070F1ED0D11D21F00701C1F50043134415
:105040000A460E480260002141601344083B23F0E9
:1050500007030B48036059601960991A5160136087
:10506000084B1960084B1960084B4FF000421A605A
:1050700070474FF40043E4E72C5B0024245B0024DA
:10508000205B0024185B00241C5B00240C5B0024C4
:10509000164B1A461B688342FBD3516802EB010C86
:1050A000844509D0416800EB010C634509D00360D9
:1050B000904219D01060704740680144516010461A
:1050C000F0E710B40A4C2468A3420BD05B68194483
:1050D000416013681B680360904200D010605DF867
:1050E000044B70470460F7E7704700BF245B00245F
:1050F000205B002438B5044600F05EFE384B1B6888
:10510000B3B1384B1B681C4250D1002C50D004F175
:10511000080214F0070F02D022F007020832002A1A
:1051200055D0314B1B68934253D330490C6804E08F
:10513000FFF77CFFE5E721461C466368934202D2F5
:105140002368002BF7D1264B1B68A34243D00D6880
:10515000083523680B6063689B1A102B10D9A018C0
:1051600010F0070F08D04FF0500383F31188BFF3FE
:105170006F8FBFF34F8FFEE743606260FFF788FFDA
:10518000626819490B689B1A0B60194909688B42C0
:1051900001D217490B60134B1B6813436360002354
:1051A0002360144A13680133136002E0002500E015
:1051B000002500F09BFE15F0070F0ED04FF05003B6
:1051C00083F31188BFF36F8FBFF34F8FFEE7002586
:1051D000EFE70025EDE70025EBE7284638BD00BFE7
:1051E000205B00240C5B00241C5B0024245B002457
:1051F000185B0024145B0024002834D038B5044622
:10520000A0F1080550F8043C174A1268134208D16F
:105210004FF0500383F31188BFF36F8FBFF34F8FAD
:10522000FEE750F8081C41B14FF0500383F311889A
:10523000BFF36F8FBFF34F8FFEE723EA020340F8FF
:10524000043C00F0B9FD54F8041C084A13680B44F0
:1052500013602846FFF71CFF054A136801331360EB
:1052600000F044FE38BD70470C5B00241C5B00243A
:10527000105B002410B50446FFF784FDA26BE36BBE
:105280009A4204D00024FFF79FFD204610BD012460
:10529000F9E710B50446FFF775FDA36B23B90124A8
:1052A000FFF792FD204610BD0024F9E770B50446D3
:1052B0001546866B026C5AB903681BB10020013693
:1052C000A66370BD806800F0F9FF0023A360F6E7D5
:1052D0006DB94068FBF7E8FD6368226C13446360B6
:1052E000A268934219D3236863602846E7E7C06841
:1052F000FBF7DAFDE368226C51429B1AE3602268F7
:10530000934202D2A3680B44E360022D01D0002037
:10531000D5E726B1013E0020D1E72846CFE700209F
:10532000CDE70346026C6AB110B50846D96811444E
:10533000D9609C68A14201D31968D960D968FBF78C
:10534000B3FD10BD704738B50546FFF71BFD95F856
:10535000454064B201E0013C64B2002C0ADD6B6A96
:1053600043B105F1240000F0FDFE0028F3D000F069
:105370008FFFF0E7FF2385F84530FFF725FDFFF7A6
:1053800001FD95F8444064B201E0013C64B2002C98
:105390000ADD2B6943B105F1100000F0E3FE00289F
:1053A000F3D000F075FFF0E7FF2385F84430FFF7F6
:1053B0000BFD38BD38B5E0B10D460446FFF7E2FC01
:1053C0002368E26B216C01FB0230A0600020A06327
:1053D0006360013A02FB0133E360FF2384F8443049
:1053E00084F84530FDB9236963B9FFF7EDFC01206E
:1053F00038BD4FF0500383F31188BFF36F8FBFF3B5
:105400004F8FFEE704F1100000F0ACFE0028ECD056
:105410004FF0E0234FF08052C3F8042DBFF34F8FBD
:10542000BFF36F8FE1E704F11000FFF7F9FB04F120
:105430002400FFF7F5FBD8E738B51D46049C0B4662
:1054400049B92460E063236401212046FFF7B2FFDD
:1054500084F84C5038BD2260F4E740B94FF0500357
:1054600083F31188BFF36F8FBFF34F8FFEE710B543
:1054700084B01C4683B10B1E18BF0123002A08BF4D
:1054800043F001038BB94FF0500383F31188BFF34E
:105490006F8FBFF34F8FFEE74FF0500383F31188F8
:1054A000BFF36F8FBFF34F8FFEE7B1FA81F35B0954
:1054B000002A18BF43F0010343B94FF0500383F3B0
:1054C0001188BFF36F8FBFF34F8FFEE75023039315
:1054D000039B502B08D04FF0500383F31188BFF388
:1054E0006F8FBFF34F8FFEE7039B012384F8463095
:1054F00000949DF81830FFF79FFF204604B010BDC0
:10550000F0B585B0019288B10F461D460446B1B191
:10551000022D20D1E36B012B1DD04FF0500383F3FC
:105520001188BFF36F8FBFF34F8FFEE74FF050032B
:1055300083F31188BFF36F8FBFF34F8FFEE7036CC8
:10554000002BE5D04FF0500383F31188BFF36F8F2A
:10555000BFF34F8FFEE700F0A1FE064658B9019B4E
:10556000002B48D04FF0500383F31188BFF36F8FA7
:10557000BFF34F8FFEE700263DE02A46394620461E
:10558000FFF794FE636A7BB948B14FF0E0234FF018
:105590008052C3F8042DBFF34F8FBFF36F8FFFF717
:1055A00013FC012005B0F0BD04F1240000F0DAFD89
:1055B0000028F4D04FF0E0234FF08052C3F8042DC0
:1055C000BFF34F8FBFF36F8FE9E7FFF7FDFB0020BD
:1055D000E8E702A800F00CFE012619E0002384F899
:1055E000443021E0002384F8453023E02046FFF7D3
:1055F000AAFE00F07BFCFFF7C5FBA26BE36B9A42AF
:10560000BBD3022DB9D0019B002BDED0002EE0D001
:10561000FFF7DAFB00F0D0FBFFF7B4FB94F844206F
:1056200052B2B2F1FF3FD9D094F8452052B2B2F154
:10563000FF3FD7D0FFF7C8FB01A902A800F0E4FDA7
:10564000D8B92046FFF716FE0028CFD0019904F103
:10565000100000F053FD2046FFF775FE00F046FCF9
:105660000028C8D14FF0E0234FF08052C3F8042D3A
:10567000BFF34F8FBFF36F8FBDE72046FFF763FE89
:1056800000F034FC00208DE72DE9F84390B10F467F
:1056900016461C460546B1B1022C20D1EB6B012BFE
:1056A0001DD04FF0500383F31188BFF36F8FBFF30A
:1056B0004F8FFEE74FF0500383F31188BFF36F8FD6
:1056C000BFF34F8FFEE7036C002BE5D04FF0500384
:1056D00083F31188BFF36F8FBFF34F8FFEE7FFF7A0
:1056E00077FCEFF311884FF0500383F31188BFF379
:1056F0006F8FBFF34F8FAA6BEB6B9A4206D3022CCE
:1057000004D0002088F31188BDE8F88395F845900F
:105710004FFA89F9AB6B224639462846FFF7C6FD9A
:10572000B9F1FF3F06D009F101035BB285F84530BE
:105730000120E7E76B6A0BB90120E3E705F12400DC
:1057400000F010FD18B126B101203060DAE7012029
:10575000D8E70120D6E7F0B585B0019290B10F46A9
:105760000446C1B100F09AFD064600BB019B002B28
:105770005ED04FF0500383F31188BFF36F8FBFF3F8
:105780004F8FFEE74FF0500383F31188BFF36F8F05
:10579000BFF34F8FFEE7036C002BE3D04FF05003B5
:1057A00083F31188BFF36F8FBFF34F8FFEE700269F
:1057B0003EE039462046FFF7B4FD013DA56323696D
:1057C00023B9FFF701FB012005B0F0BD04F1100083
:1057D00000F0C8FC0028F4D04FF0E0234FF08052D6
:1057E000C3F8042DBFF34F8FBFF36F8FE9E7FFF7C7
:1057F000EBFA0020E8E702A800F0FAFC012621E01D
:10580000002384F8443029E0002384F845302BE05D
:105810002046FFF798FD00F069FB09E02046FFF7FE
:1058200092FD00F063FB2046FFF733FD00283FD1D7
:10583000FFF7A8FAA56B002DBBD1019B002BD6D09A
:10584000002ED8D0FFF7C0FA00F0B6FAFFF79AFAA8
:1058500094F844305BB2B3F1FF3FD1D094F84530B7
:105860005BB2B3F1FF3FCFD0FFF7AEFA01A902A8B8
:1058700000F0CAFC0028D1D12046FFF70AFD00281D
:10588000C6D0019904F1240000F038FC2046FFF74F
:105890005AFD00F02BFB0028CAD14FF0E0234FF057
:1058A0008052C3F8042DBFF34F8FBFF36F8FBFE754
:1058B000002089E70023072B0CD8074A52F8332031
:1058C0000AB10133F7E7044A42F8331002EBC3028E
:1058D00050607047704700BF2CDB002470B5044651
:1058E0000D461646FFF74EFA94F844305BB2B3F11A
:1058F000FF3F0DD094F845305BB2B3F1FF3F0BD0C2
:10590000FFF762FAA36B5BB12046FFF71CFD70BD89
:10591000002384F84430EDE7002384F84530EFE7B6
:105920003246294604F1240000F000FCECE70000B8
:10593000084B1B681B6823B9074B4FF0FF321A60F6
:105940007047044B1B68DB68DB685A68024B1A60BF
:10595000704700BFDCDB002474DB00242DE9F04736
:1059600080460D4617469946089EDDF824A00A9CFD
:105970009200A521206B0CF0D9F9236B6FF0404207
:105980003A4403EB820727F00707A5B34FF0000C5A
:10599000BCF10F0F09D815F80C3004EB0C0282F89B
:1059A000343013B10CF1010CF2E7002384F84330DA
:1059B000372E00D93726E662E66400252565201DCE
:1059C000FFF739F904F11800FFF735F92461C6F142
:1059D0003806A6616462656584F858504A464146B7
:1059E0003846FFF7A1F92060BAF1000F01D0CAF8DC
:1059F0000040BDE8F087002384F83430D8E7000089
:105A000038B5002407E004EB840293000E481844E4
:105A1000FFF706F90134372CF5D90C4D2846FFF76E
:105A2000FFF80B4C2046FFF7FBF80A48FFF7F8F8A1
:105A30000948FFF7F5F80948FFF7F2F8084B1D6031
:105A4000084B1C6038BD00BF08DC0024F4DB0024D8
:105A5000E0DB0024C4DB0024B0DB002498DB00245E
:105A6000DCDB0024D8DB002410B50446FFF78AF9FC
:105A7000224A136801331360214B1B685BB1214B31
:105A80001B686BB91E4B1B68DA6AE36A9A4207D837
:105A90001B4B1C6004E01A4B1C601368012B29D0BF
:105AA000194A1368013313606364E06A174B1B687B
:105AB000984201D9154B186000EB8000211D144B52
:105AC00003EB8000FFF7BAF8FFF77EF90D4B1B6878
:105AD0007BB10B4B1B68DA6AE36A9A4209D24FF03A
:105AE000E0234FF08052C3F8042DBFF34F8FBFF374
:105AF0006F8F10BDFFF784FFD2E700BF94DB002457
:105B000068E0002488DB002478DB00248CDB0024A0
